:020000040800F2
:10000000200900209D01000873250008851E0008B6
:1000100071250008110A00083F2A000800000000AE
:100020000000000000000000000000007926000829
:10003000130A000800000000752500087B26000850
:10004000B7010008B7010008B7010008B7010008B0
:10005000B7010008B7010008B7010008B7010008A0
:10006000B7010008B7010008B7010008B701000890
:10007000B7010008B7010008B7010008B701000880
:10008000B7010008B7010008B7010008B701000870
:10009000B7010008B7010008B7010008B701000860
:1000A000B7010008B7010008B7010008B701000850
:1000B00025270008B7010008B7010008B7010008AC
:1000C000B7010008B7010008B7010008B701000830
:1000D000B7010008B7010008B7010008B701000820
:1000E000B7010008B7010008B7010008B701000810
:1000F000B7010008B7010008B7010008B701000800
:10010000B7010008B7010008B7010008B7010008EF
:10011000B7010008B7010008B7010008B7010008DF
:10012000B7010008B7010008B7010008B7010008CF
:10013000B7010008B7010008B7010008B7010008BF
:10014000B7010008B7010008B7010008B7010008AF
:10015000B7010008B7010008B7010008B70100089F
:10016000B7010008B7010008B7010008B70100088F
:10017000B7010008B7010008B7010008000000003F
:10018000B7010008B7010008DFF80CD000F03AFB17
:1001900000480047AD3C0008200900200648804781
:1001A00006480047FEE7FEE7FEE7FEE7FEE7FEE75C
:1001B000FEE7FEE7FEE7FEE71527000889010008D5
:1001C0002DE9F05F0546002092469B46884606468C
:1001D000814640241BE0284641464746224600F01F
:1001E00009FA53465A46C01A914110D3114618468F
:1001F000224600F0F0F92D1A67EB01084F4622461F
:100200000120002100F0E7F917EB00094E41201E04
:10021000A4F10104DFDC484631462A464346BDE8E6
:10022000F09FD2B201E000F8012B491EFBD27047CB
:100230000022F6E710B513460A4604461946FFF7B2
:10024000F0FF204610BD2DE9FE4F804681EA0300F5
:10025000C00F0C46009021F0004123F00045B8EBA0
:100260000200A94105D24046214690461C460B4655
:10027000024623F00040104347D0270DC7F30A0081
:10028000C3F30A510290401A019040286BDAC3F37D
:10029000130040F4801B0098924620B10023D2EB5B
:1002A000030A63EB0B0B01985946C0F1400250461C
:1002B00000F091F906460D4650465946019A00F065
:1002C000A9F910EB08006141002487EA115284EA81
:1002D000E7731A4340D0009A62B3019A012A4FEAA9
:1002E000075215DC001B61EB02014FF0004202EAED
:1002F0000752CDE90042001C41F5801132462B46E1
:1003000000F0E0F903B0BDE8F08F40462146F9E780
:10031000001B61EB0201001C41F5801300185B41DA
:100320002018A2F5001747EB030140EAD570B61973
:100330006D4111E06D084FEA360645EAC0754FEA97
:100340000752001B61EB0201001C41F580114908B6
:100350004FEA30000019514132462B4603B0BDE848
:10036000F04F00F0A0B90098012240000023D0EB2C
:10037000020263EBE073009821464FEAE074B8EBA9
:10038000000061EB0401E9E783F000435BE781F0E3
:10039000004158E72DE9FE4F81EA030404F00044D0
:1003A00021F0004100944FF0000B23F0004350EA8D
:1003B00001045ED052EA03045BD0C3F30A54C1F3D4
:1003C0000A552C44A4F2F3340194A0FB0254C1F367
:1003D000130141F48011C3F3130343F4801301FBB1
:1003E000024400FB034E840A970A44EA815447EA18
:1003F0008357A4FB076802958D0A05FB07854FEA22
:10040000932C04FB0C542705029D4FEA065847EA3B
:100410001637B5EB08056EEB070C870E920E47EA10
:10042000811742EA8312A7FB0201B6EB0B0164EBD2
:1004300000042B0D43EA0C335E1844EB1C50DA46E3
:100440005146E7FB0201C5F313044FEA0B3343EABD
:1004500014534FEA0432019C43EA0603A4F10C044E
:100460000294009CCDE900B400F02CF903B0BDE883
:10047000F08F00200146F9E72DE9F04D81EA0304F1
:1004800004F0004B21F0004514464FF0000A23F021
:10049000004150EA050220D054EA01021DD0C5F304
:1004A0000A570246C5F31303C1F31300C1F30A56FA
:1004B00040F4801543F48013A7EB0608101BD646C2
:1004C00008F2FD3873EB050002D308F1010801E0E2
:1004D00092185B41B8F1000F03DA00200146BDE835
:1004E000F08D00204FF48011064684460EE0171B65
:1004F00073EB050705D3121B63EB050306434CEAB8
:10050000010C49084FEA300092185B4150EA01079C
:10051000EDD152EA030012D082EA040083EA050119
:10052000084305D0101BAB4106D20122002306E090
:1005300000224FF0004302E06FF0010253101AEB6B
:1005400006004CEB085110EB0A0041EB0B01BDE833
:10055000F04D00F0A8B80EB5C10F80EAE070084475
:10056000CA07002140F233438DE80E000A460B46CD
:1005700000F0A8F803B000BD00F0004230F00040E9
:100580000AD0C10D01F56071C0F3160042EA0151B5
:10059000C20840071143704700200146704701F030
:1005A000004330B421F0004150EA010206D00A0DA8
:1005B000A2F56072C1F31301002A02DC30BC0020F6
:1005C0007047440F44EAC104C100E01830BC00EB9E
:1005D000C25000F031B8202A04DB203A00FA02F1C0
:1005E000002070479140C2F1200320FA03F3194321
:1005F00090407047202A04DB203A21FA02F00021C3
:10060000704721FA02F3D040C2F120029140084322
:1006100019467047202A06DBCB17203A41FA02F030
:1006200043EAE07306E041FA02F3D040C2F120024F
:1006300091400843194670470029A8BF7047401CE5
:10064000490008BF20F00100704710B4B0FA80FCE8
:1006500000FA0CF050EA010404BF10BC704749B125
:10066000CCF1200421FA04F411FA0CF118BF012195
:1006700021430843A3EB0C01CB1D4FEA00614FEA75
:10068000102042BF002010BC704700EBC350104444
:100690000029A4BF10BC7047401C490008BF20F0CF
:1006A000010010BC704710B5141E73F1000408DA85
:1006B000401C41F1000192185B411A4301D120F026
:1006C000010010BD2DE9F04D92469B4611B1B1FAE3
:1006D00081F202E0B0FA80F220329046FFF77BFF11
:1006E00004460F4640EA0A0041EA0B0153465A46C7
:1006F000084313D0114653EA010019D0C8F1400253
:100700005046FFF777FF05460E465046594642468B
:10071000FFF761FF084305D0012004E02046394679
:10072000BDE8F08D0020054346EAE0762C433743D0
:100730000A986305E40AA0EB08000022FD0A44EAD7
:1007400047540A3002D500200146E9E70105101997
:100750006941DDE9084500196941BDE8F04DA2E7AE
:100760002DE9F04D00231A461B1A8A4103DB0020B5
:100770000146BDE8F08DC1F30A52C1F3130141F403
:1007800080154FF0000BD10702D100186D41521EA9
:100790000027044640F2FF11384601EB620A3E464C
:1007A0008046024600204FF48011FFF723FFC21954
:1007B0007141BB1846EB0100B4EB030C75EB000C68
:1007C00004D3E41A65EB000517460E46241908F118
:1007D00001006D4180463428E3DDF91946EB06003F
:1007E000091BA84103D24FF0FF32134601E000225B
:1007F00013461BEB070046EB0A51BDE8F04DFFF72F
:1008000052BF0000064C074D06E0E06840F00103CF
:1008100094E8070098471034AC42F6D3FFF7B8FCD1
:10082000C8410008E841000870B52DED068BF0EED8
:1008300061AAB0EE40AA2AEEAA0AF0EE429AB0EE01
:10084000628AF0EE418A09EEA90AB0EE609A08EEDB
:10085000080A03F015FA6B4C2AEE801A29EE804A3A
:1008600094ED012AD4ED032A68EE000A94ED000A03
:1008700022EE223AD4ED021AB0EE008AA4F120054D
:1008800000EE613A63EE084A20EE023A01EEA23A27
:1008900023EE085A20EE003A02EE423A01EEE13A27
:1008A00002EEA23A64EE033A40EEC53A60EEA40AC4
:1008B00041EE430A21EE051A95ED023A04EE641A60
:1008C000D5ED014A03EEA43A85ED023A95ED035ABF
:1008D00000EEA45A85ED035A95ED044A01EE244A30
:1008E00085ED044AD5ED004A04EEA3AA44EE818AC0
:1008F00004EEA09A3AEE033A38EE841A79EE050A2D
:1009000022EE434A01EEE04A02EEC14ADFED3E3AF2
:1009100004EE230A84ED000A20EE034A01EE814A28
:1009200002EEE04A04EE232A20EE204A84ED012A5A
:1009300002EE414A20EE011A20EE000A02EE201AD1
:1009400002EE834A02EE020A44EE231AC4ED021AB2
:1009500001EEC31A01EEA10A41EE232AC4ED032AD7
:1009600002EEA20A03F08CF9D4ED000A20EE801A00
:1009700084ED001AD4ED010A60EE800AC4ED010A8C
:10098000D4ED021A60EE880A61EE801AC4ED021AF4
:1009900094ED032A22EE000A84ED030A20EE800A79
:1009A00061EE080A00EEE10A02F07EF8DFED178A38
:1009B00020EE280A85ED060A94ED011AB8EE000A29
:1009C00021EE000A60EE010A94ED020A60EE081AB8
:1009D00041EEC00AB7EE000A70EE800A94ED030AF9
:1009E00021EE800AD4ED001A61EE881A01EE810A28
:1009F00002F0F0F820EE280A85ED070ABDEC068B20
:100A000070BD00005C00002096430B3C3333654210
:100A1000FEE7704772B6FEE770B5044600F014F9C1
:100A20000546601C02D004480078044400F00CF92C
:100A3000401BA042FAD370BD800000202DE9F84F82
:100A4000DFF8BCA10022012503264FF00F090AF1AF
:100A5000040BAAF1040E00BF0B6805FA02F4234050
:100A6000A34270D10F7907F00307012F01D0022FA5
:100A700016D187684FEA420806FA08FC27EA0C07F5
:100A8000D1F80CC00CFA08FC4CEA070CC0F808C0FE
:100A90004768A7430C79C4F3001494403C43446076
:100AA0000C79E443A4070AD0C4684FEA420C06FA62
:100AB0000CF7BC438F6807FA0CF72743C7600C7923
:100AC00004F00304022C12D1D40800EB840CDCF8EF
:100AD00020405707FF0E09FA07F824EA0804D1F866
:100AE000108008FA07F848EA0408CCF82080046867
:100AF0004FEA420C06FA0CF7BC430F7907F00307E4
:100B000007FA0CF7274307604C6814F4403F70D095
:100B10003C4C276847F480472760246822F003078D
:100B200004F480440094384C07EB040CDCF80848CB
:100B300097074FEA177809FA08F7BC43334FB842D2
:100B400002D1002724E054E0314FB84201D10127FF
:100B50001EE0304FB84201D1022719E02E4FB842B3
:100B600001D1032714E02D4FB84201D104270FE033
:100B70002B4FB84201D105270AE02A4FB84201D1D4
:100B8000062705E0284FB84201D1072700E00827D3
:100B900007FA08F72743CCF80878DAF800405746F8
:100BA000D1F804C09C435FEACC2C00D51C433C60C8
:100BB000DBF800405F46D1F804C09C435FEA8C2C10
:100BC00000D51C433C60DEF800407746D1F804C0F5
:100BD0009C435FEA8C3C00D51C433C60084F083FB7
:100BE0003C68D1F804C09C435FEACC3C00D51C4370
:100BF0003C60521C102AFFF42FAFBDE8F88F0000B4
:100C0000083C0140443802400030014000000240EE
:100C10000004024000080240000C024000100240A4
:100C20000014024000180240001C0240426921EA00
:100C300002030A4043EA0241816170470AB18161BF
:100C400070470904FBE70000014880687047000016
:100C50008000002090F83D007047000070B504004F
:100C600025D094F83D00002520B984F83C5020465A
:100C700000F052FA242084F83D002068016821F039
:100C8000010101602068016841F4004101602068B1
:100C9000016821F40041016000F0A6FB4D4A616843
:100CA000914201D84C4900E04C49884201D20120D0
:100CB00070BD4B492368B0FBF1F15E6826F03F063A
:100CC0000E435E606368934206D94FF496735943AE
:100CD0004FF47A73B1FBF3F12368491C1E6A26F0C6
:100CE0003F06314319626168914210D84900401EA5
:100CF000B0FBF1F2521CC2F30B02042A01D2042011
:100D000022E0B0FBF1F0401CC0F30B001CE0A26835
:100D1000F2B301EBC10303EB0116431EB3FBF6F381
:100D20005B1C43F480431B0549D092B301EBC10225
:100D300002EB0111401EB0FBF1F0401CC0F30B00B0
:100D400040F4804040F400402168CA694CF6FF73CB
:100D50009A431043C861D4E9071001432068026830
:100D600022F0C00211430160D4E90301014320686D
:100D7000826848F2FF339A4311438160D4E9050148
:100D800008432168CA6822F0FF021043C86001E0EE
:100D90000EE016E02068016841F001010160256461
:100DA000202084F83D00256384F83E50002070BD6B
:100DB00001EB4106431EB3FBF6F35B1CB3E70120D6
:100DC000C2E701EB4101401EB0FBF1F0401CC0F353
:100DD0000B00B7E7A086010080841E0000093D00DB
:100DE00040420F002DE9FF4F83B09A46DDE911879D
:100DF00093460446DDF84090FFF726FF054694F839
:100E00003D00202870D11923012274492046009505
:100E100001F04EF90028F5D194F83C00012863D088
:100E2000012084F83C0020680168C90703D10168EB
:100E300041F0010101602068016821F40061016056
:100E4000222084F83D00402084F83E0000262664DD
:100E5000C4F82490A4F82A80608D20856048E06260
:100E6000CDE9007553465A462046049901F022F810
:100E7000002879D1208DD0B1012821D00228206806
:100E800024D0416980690090208D032866D801280C
:100E90002BD0544902283B464FF00002009557D012
:100EA0008846204601F004F900285DD13AE0206828
:100EB000416981690091016841F4007101607DE040
:100EC0002068016821F480610160F0E7016821F485
:100ED000806101602068016841F400610160206860
:100EE00041698069009069E075E02A4639462046EC
:100EF00001F084F988BB54E02068016841F4007176
:100F0000016020680069616A0870606A401C606264
:100F1000218D491E2185618D491E618521680969E0
:100F2000017042E02068016821F48061016020685E
:100F30000069616A0870606A401C6062208D401E12
:100F40002085608D401E60853B460022414600950D
:100F5000204601F0ADF800B9CEE705E02A46394653
:100F6000204601F04BF918B1012007B0BDE8F08F21
:100F700020680069616A0870606A401C6062208DA8
:100F8000401E81B22185608D401E608520684269C7
:100F9000D243520712D4032903D1016821F480619E
:100FA000016020680069616A0870606A401C6062C4
:100FB000208D401E2085608D401E6085208D00287C
:100FC0007FF462AF202084F83D0084F83E6084F80E
:100FD0003C600020C9E70220C7E7000002001000C3
:100FE0000000FFFF040001002DE9FF4F83B09A4687
:100FF000DDE9119793460446DDF84080FFF724FEB3
:10100000054694F83D0020287FD11923012240494C
:101010002046009501F04CF8002876D194F83C0069
:10102000012872D0012084F83C0020680168C907BB
:1010300003D1016841F0010101602068016821F4D9
:1010400000610160212084F83D00402084F83E00CA
:1010500000262664C4F82480A4F82A90608D208598
:101060002C48E062CDE9007553465A462046049963
:1010700000F09EFF70B930E02A463946204601F064
:10108000F5F858B1206C042804D12068016841F4B7
:1010900000710160012007B0BDE8F08F606A21682F
:1010A00000780861606A401C6062218D491E89B227
:1010B0002185628D521E628522685369DB435B077E
:1010C0000BD469B100781061606A401C6062208DA9
:1010D000401E2085608D401E6085208D0028CBD16C
:1010E0002A463946204600F0B7FF0028CAD154F8F6
:1010F0003D0B016841F400710160202004F81E09D5
:10110000E67766770020C6E7FFE70220C3E7000026
:10111000020010000000FFFF10B586B00446142145
:101120006846FFF785F813492068884220D11248A5
:101130000021026842F002020260006800F0020032
:101140000590C02000901220CDE9010103200390FA
:101150000420049069460948FFF770FC06481030E7
:10116000016841F400110160006800F4001005906E
:1011700006B010BD00540040303802400004024068
:101180000248816802781144816070478000002025
:101190000B4810B5016841F400710160016841F429
:1011A00080610160016841F480710160032000F0FA
:1011B0006FF80F2000F006F800F024F8002010BDB2
:1011C000003C024070B50D4D04464FF47A7128780A
:1011D000B1FBF0F00A490968B1FBF0F000F00CFB3C
:1011E00048B9102C07D200222146501E00F030F8DA
:1011F00000206C6070BD012070BD000080000020E8
:101200008C0000200A4808B5016841F48041016063
:10121000006800F4804000900548001F016841F01C
:1012200080510160006800F08050009008BD00000F
:1012300044380240002809DB00F01F0201219140E0
:101240004009800000F1E020C0F800117047000064
:10125000F0B40E4B1B680C46C3F30223C3F1070521
:10126000042D00D90425191D072901D2002300E00F
:10127000DB1E012606FA05F1491E214099409E40D9
:10128000761E16403143F0BC01F0FDBB0CED00E0D2
:10129000064900F0070208684FF6FF03184040EACD
:1012A0000220034A10430860704700000CED00E084
:1012B0000000FA052DE9F0470E46050065D0DFF87D
:1012C0001481D8F80000F7B200F00700B04207D24E
:1012D00088F80070D8F8000000F00700B04254D140
:1012E00028683D4C810712D5400703D5206840F49B
:1012F000E05020602878000703D5206840F4604063
:1013000020602068A96820F0F00008432060287859
:10131000C0072DD0304968680839012812D002284A
:1013200013D0032811D00968890700292DDA216814
:1013300021F0030101432160FFF786FC814641F261
:10134000883A0EE009688903EFE709688901ECE74C
:10135000FFF77AFCA0EB0901514502D90320BDE853
:10136000F0872068696800F00C00B0EB810FEFD1C6
:10137000D8F80010404601F00701B14207D90770C4
:10138000006800F00700B04201D00120E7E72878AC
:10139000400705D52068E96820F4E0500843206044
:1013A0002878000706D52068296920F4604040EAC3
:1013B000C100206000F038F82168084AC1F3031129
:1013C000515CC8400649086006480068FFF7FAFE0D
:1013D0000020C4E7003C0240083802409041000869
:1013E0008C0000208400002004480549006809683A
:1013F000044AC1F38221515CC84070478C00002030
:1014000008380240A04100080448054900680968FE
:10141000044AC1F34231515CC84070478C0000203F
:1014200008380240A0410008154810B5006810F0C7
:101430000C02144813D01449042A0FD0082A0ED1E4
:101440000F4C241F2268236802F03F025B0207D57D
:101450002068C0F38810A0FB010106E0084610BD1B
:101460002168C1F38811A1FB00010023FEF7A8FE4B
:101470002168C1F30141491C4900B0FBF1F010BDE6
:10148000083802400024F40040787D012DE9F84F2F
:1014900004006ED02078DFF84C93C007A9F1040552
:1014A0004AD009F104000168C1F38101012908D083
:1014B0000068C0F3810002280AD1D9F80000400278
:1014C00006D52868800337D560680028E1D033E06E
:1014D0006068B0F5803F10D0B0F5A02F286810D01C
:1014E00020F480302860286820F48020286060681C
:1014F000A8B1FFF7A9FB06460DE0286840F480304C
:10150000F4E740F480202860F7E700BFFFF79CFB7A
:10151000801B642873D828688003F7D50CE0FFF798
:1015200093FB064605E000BFFFF78EFB801B642897
:10153000F0D828688003F7D42078DFF8AC828007E1
:101540004FF0000A3ED5A748001D016811F00C0FAE
:1015500008D00068C0F3810002280BD1D9F8000040
:10156000400207D42868800716D5E068012800D11A
:1015700012E033E1E068B8B10120C8F80000FFF7DD
:1015800063FB064605E000BFFFF75EFB801B0228F9
:10159000C0D828688007F7D52868216920F0F800AE
:1015A00040EAC10028600DE0C8F800A0FFF74CFB3E
:1015B000064604E0FFF748FB801B02281FD8286876
:1015C0008007F7D42078000722D5864F87486169C5
:1015D000703771B101210160FFF736FB064604E068
:1015E000FFF732FB801B022809D838688007F7D53F
:1015F0000EE0C0F800A0FFF727FB064605E082E0FA
:10160000FFF722FB801B02287DD838688007F7D4BB
:101610002078400768D5DFF8CCB100270BF13C0BF0
:10162000DBF80000C0000BD4DBF8001041F0805163
:10163000CBF80010DBF80000012700F0805000908C
:101640006B4E3068C00510D4306840F48070306054
:10165000FFF7FAFA009005E0FFF7F6FA0099401A52
:10166000022850D83068C005F6D55E4EA0686C36AA
:1016700001280FD00528306810D020F0010030601C
:10168000306820F004003060A068B8B1FFF7DCFAE1
:1016900000900FE0306840F00100F4E740F00400F3
:1016A0003060F7E7FFF7D0FA0099411A41F288302D
:1016B000814266D830688007F4D50EE0FFF7C4FA9F
:1016C000009007E0FFF7C0FA0099411A41F2883014
:1016D000814256D830688007F4D42FB1DBF800106F
:1016E00021F08051CBF80010A069C8B33D49091D15
:1016F0000968C1F3810102294AD00228504607D067
:10170000C8F8600000E03CE0FFF79EFA04463BE0CA
:101710004746C8F86000FFF797FA064605E000BFA5
:10172000FFF792FA801B02282BD828688001F7D493
:10173000D4E907010843A16A2E4A490802EB014196
:10174000626A41EA8211084394F82C1040EA016170
:10175000C9F8001001203866FFF776FA044606E063
:101760003EE000BFFFF770FA001B022809D8286886
:101770008001F7D534E000BFFFF766FA001B0228AE
:1017800002D90320BDE8F88F28688001F4D427E04F
:101790000128F7D0D9F80000E26900F480019142F5
:1017A0001CD1226A00F03F01914217D147F6C07167
:1017B000626A0140B1EB821F10D1A26A4FF0FF3381
:1017C00000F4403103EB5202B1EB024F06D194F822
:1017D0002C1000F07060B0EB016F01D00120D1E758
:1017E0000020CFE70438024000004742800E474205
:1017F000007000400000FFFF10B5401EB0F1807F78
:1018000001D3012010BD4FF0E02460610F2160176B
:1018100001F039F90020A06107202061002010BDEF
:101820007047704770B590F83C20012A32D00124EF
:1018300080F83C40022280F83D2003685A689D6889
:1018400022F070060A6832435A60134B02689A42CB
:1018500014D0B2F1804F11D0104B9A420ED0104BE1
:101860009A420BD00F4B9A4208D00F4B9A4205D0A8
:101870000E4B9A4202D00E4B9A4204D1496825F091
:1018800080031943916080F83D40002180F83C10AE
:10189000084670BD022070BD0000014000040040F9
:1018A00000080040000C00400004014000400140DE
:1018B0000018004010B5040003D094F83D0010B1AA
:1018C00007E0012010BD002084F83C00204600F015
:1018D0001FF8022084F83D00211D206800F028FF39
:1018E000012084F8460084F83E0084F83F0084F824
:1018F000400084F8410084F8420084F8430084F8F2
:10190000440084F8450084F83D00002010BD00002C
:1019100008B50068B0F1804F12D10A48016841F063
:10192000010101600068002200F0010000901146F2
:101930001C20FFF78DFCBDE808401C20FFF77ABC97
:1019400008BD00004038024090F83D10012901D048
:1019500001207047022180F83D100168CA6842F0FA
:101960000102CA6000681149884214D0B0F1804F6A
:1019700011D00F4988420ED00E4988420BD00E4933
:10198000884208D00D49884205D00D49884202D0CE
:101990000C49884204D1816801F00701062903D06F
:1019A000016841F001010160002070470000014022
:1019B0000004004000080040000C0040000401400A
:1019C000004001400018004070B5044690F83C000B
:1019D0000025012817D0012684F83C60022084F8F5
:1019E0003D002068826822F0770222F47F42826004
:1019F0000868502838D00DDC20284FD005DC90B383
:101A0000102811D14AE0022070BD302846D040286D
:101A10000AD13BE060282FD070280DD0B0F5805F50
:101A200003D0B0F5005F12D0012584F83D6000209E
:101A300084F83C00284670BDCB68D1E901212068BC
:101A400000F0E2FE2068816841F0770109E0CB6890
:101A5000D1E90121206800F0D7FE2068816841F4B7
:101A600080418160E1E719E0CA684968206800F0B8
:101A7000DDFE5021206806E0CA684968206800F051
:101A8000E6FE6021206800F0C9FECEE7CA6849681A
:101A9000206800F0CBFE40212068F4E72268014670
:101AA0001046F0E770472DE9F04104460068C6682B
:101AB00005694FF00007A90713D5B10711D5F91E25
:101AC000016101202077206880698007204602D0CC
:101AD000FFF7E8FF04E000F07EF8204600F07CF815
:101AE0002777680716D5700714D521686FF00400B2
:101AF0000861022020772068806910F4407F20462A
:101B000002D0FFF7CFFF04E000F065F8204600F0B8
:101B100063F82777280715D5300713D521686FF0AC
:101B200008000861042020772068C06980072046EB
:101B300002D0FFF7B7FF04E000F04DF8204600F0B8
:101B40004BF82777E80616D5F00614D521686FF014
:101B500010000861082020772068C06910F4407FD9
:101B6000204602D0FFF79EFF04E000F034F8204644
:101B700000F032F82777E80708D0F00706D0216890
:101B80006FF001000861204600F028F8280608D50B
:101B9000300606D521686FF0800008612046FFF707
:101BA0003FFE680608D5700606D521686FF0400034
:101BB0000861204600F0ACF8A8060AD5B00608D5A2
:101BC00021686FF0200008612046BDE8F041FFF772
:101BD00028BEBDE8F0817047704700002DE9F04154
:101BE00041492DED028B884206D1404CA068B0F5EA
:101BF0007A7F05DA401CA060BDEC028BBDE8F08165
:101C00003A491831A1F10C0001F0C3FD607037486A
:101C10000C30B0F90000FEF79EFC0E4646EC100BAF
:101C20009FED338B054653EC182B51EC100BFEF750
:101C3000B1FBFEF7B4FC304F00EE100A53EC182B4A
:101C400087ED000A46EC105B51EC100BFEF7A2FB8F
:101C5000FEF7A5FC00EE100A53EC182B87ED010AE5
:101C600046EC105B51EC100BFEF794FBFEF797FC73
:101C70001E4900EE100A183187ED020A881F01F094
:101C8000B4FE607019481230B0F9001000EE101A5E
:101C90001B49F8EEC00A9FED190A60EE800AC1EDFB
:101CA000000AB0F9021000EE901A1649F8EEE00AA8
:101CB00060EE800AC1ED000AB0F9040000EE900A5F
:101CC0001148F8EEE00A20EE800A80ED000A606814
:101CD000401C606032288FD140210C48FEF7A6FFDF
:101CE0000020606088E70000500200200000002013
:101CF000000000000000483FA000002058A00B3A60
:101D000070000020740000207800002000000240D5
:101D1000704770B5040004D094F84100002510B15C
:101D200006E0012070BD84F84050204600F024F801
:101D3000242084F841002068C16821F40051C1606A
:101D4000204600F0BDFD2068016921F49041016149
:101D50002068416921F02A0141612068C16841F48D
:101D60000051C1606564202084F8410084F842007D
:101D70006563002070BD000010B586B004461421D4
:101D80006846FEF755FA14492068884221D1134865
:101D90000021026842F010020260006800F01000AA
:101DA00005900E481438026842F001020260006893
:101DB00000F0010005904FF4C06000900220CDE9D2
:101DC0000101032003900720049069460448FEF7B0
:101DD00035FE06B010BD000000100140443802403E
:101DE000000002402DE9F843044690F8410098466F
:101DF00016460D46202802D00220BDE8F88385B1A2
:101E00007EB100206064212084F84100FEF71CFFB1
:101E1000A6848146E684A0682027B0F5805F02D0C2
:101E200003E00120E9E7206910B12E4600250EE00D
:101E300000260CE08021204600F0C8FDA8B9C6B1FC
:101E400016F8010B21684860E08C401EE084E08CAD
:101E50004B464FF00002CDF800800028EAD14FF049
:101E60004001204600F0B2FD40B184F841700320EB
:101E7000C3E735F8020BC0F30800E3E784F84170CC
:101E80000020BAE7FEE701684A69D24352050FD441
:101E90006FF480624A61002140F8301F20224273B3
:101EA0008173026942F004020261017301207047EC
:101EB000002070472DE9F84F0446006889460B9DC5
:101EC00001689846174641F4806101602068016806
:101ED00041F48071016000954FF0011B00225946CA
:101EE00020460A9B00F0E4F84FF4007A40B12068E5
:101EF0000068C00501D5C4F840A00320BDE8F88FF4
:101F0000216809F0FE0008612B46284920460A9AFC
:101F100000F016F9F0BB20684169806900902A46FC
:101F200020460A9900F0A2F940B1206C04283AD169
:101F30002068016841F40071016034E0FEB2B8F13C
:101F4000010F09D02168380A08612A4620460A99FB
:101F500000F08CF90028E8D1206806612A46204666
:101F60000A9900F083F90028DFD12068016841F464
:101F70008071016000950022594620460A9B00F0BE
:101F800097F80028B3D1216809F0FF0040F0010064
:101F9000086100E007E02B46044920460A9A00F059
:101FA000CFF80028AAD00120A8E700000200010015
:101FB0002DE9F843044600680D46DDE908970168FD
:101FC0009846164641F4807101604B4600224FF05E
:101FD00001112046009700F06BF848B120680068B6
:101FE000C00502D54FF4007020640320BDE8F883DB
:101FF000216805F0FE0008613B464A461549204627
:1020000000F09EF888B920684169806900903A46DE
:102010004946204600F02AF948B1206C042804D132
:102020002068016841F4007101600120DEE7F5B22B
:10203000B8F1010F09D02168300A08613A464946D3
:10204000204600F013F90028E7D120680561002040
:10205000CCE700000200010070B516460D460446AC
:102060001EE02046FFF70FFF08B1012070BD681C7D
:1020700016D0FEF7E9FD801BA84200D885B920687C
:102080004069C04340070BD5002044F8300F2021A1
:102090006173A073216941F0200121612073E4E79D
:1020A00020684069C0434007DBD4002070BD0000B9
:1020B0002DE9F047984617460D460446C1F30746FA
:1020C000DDF820902AE000BFB8F1FF3F26D0FEF7F0
:1020D000BBFDA0EB0901414502D8B8F1000F1DD1AD
:1020E0002068012E16D0806925EA00000004000C4B
:1020F00012D00020B84211D1002044F8300F202126
:102100006173A073216941F02001216120730120D6
:10211000BDE8F0874069E7E70120EBE72068012E82
:102120000AD0806925EA00000004000C06D00020D7
:10213000B842C9D00020EBE74069F3E70120F7E798
:102140002DE9F047984616460D4604464FF0000923
:102150004FF0200AC1F3074723E020684069C043DD
:10216000400515D42068016841F4007101602168C0
:102170006FF480604861C4F8309084F83DA084F822
:102180003E90216C41F00401216484F83C9021E0F0
:10219000701C06D0FEF758FDA0EB0800B04203D833
:1021A00016B1012F1FD021E02068012F15D08069C2
:1021B00025EA00000004000C18D000BF44F8309F4E
:1021C00084F80DA084F80E90216941F0200121616E
:1021D00084F80C900120BDE8F087406925EA0000F2
:1021E0000004000CEAD12068406901E020688069A1
:1021F00025EA00000004000CAFD1ECE72DE9F04126
:10220000002590460E460446202728E04069C0433A
:10221000C0060CD454F8301B6FF01000486144F82D
:1022200010596777A577206A2062257714E0FEF7BA
:102230000BFDA0EB0800B04200D886B920684069C9
:10224000C04340060BD544F8305F6773A57320691F
:1022500040F02000206125730120BDE8F081206856
:102260004169C9434906D1D40020F6E770B5164646
:102270000D4604461EE02046FFF705FE08B101208A
:1022800070BD681C16D0FEF7DFFC801BA84200D88A
:1022900085B920684069C04300060BD5002044F88A
:1022A000300F20216173A073216941F02001216169
:1022B0002073E4E720684069C0430006DBD40020B7
:1022C00070BD000070B551EC100B2DED0A8BB0EE17
:1022D00041CAF0EE61CA53EC1C2BFEF7CDF841EC7D
:1022E000100B53EC102B9FED480B51EC100BFEF72D
:1022F000C3F8FEF754F900EE100A00F079FE10EE74
:10230000100AFEF739F941EC180B53EC182BFEF7C5
:1023100041F8DFED3FAA0E46054646EC190BB0EE3C
:102320006A0A00F07FFDB0EE00AA20EE0A0A10EE65
:10233000100AFEF721F953EC182BFEF72BF89FED4E
:1023400035BB53EC1B2BFDF77EFF53EC192BFDF730
:102350007AFF41EC190B51EC1C0BFEF720F900EE53
:10236000100A2E4CB5EEC00A84ED000AF1EE10FA08
:1023700047DD46EC105B53EC192B51EC100BFEF7CC
:102380007BF8FEF70CF900EE900A53EC1B2BC4ED22
:10239000030A20EE8A0A84ED040AC4ED050A46EC1D
:1023A000105B51EC100BFDF7EFFF9FED1D1B53EC85
:1023B000112BFDF7EFFF53EC192BFEF75DF8FEF73D
:1023C000EEF846EC1C5BB0EE6A0A606000F02AFD95
:1023D00020EE0A0A10EE100AFEF7CEF853EC182B86
:1023E000FDF7D8FF53EC1B2BFDF7D1FF53EC1C2B53
:1023F000FDF729FF53EC192BFEF73EF8FEF7CFF857
:10240000A060BDEC0A8B70BD182D4454FB2109401F
:10241000DB0F493F000000000000F03FDC0100201E
:10242000000000000000004030B587B0142168466D
:10243000FDF7FEFE15480024016841F080010160AF
:10244000016801F080010591016841F0010101601E
:10245000016801F001010591016841F0020101608C
:1024600000680B4D00F00200059000224021284634
:10247000FEF7E4FB402000900120CDE9010469460D
:1024800028460394FEF7DAFA07B030BD3038024030
:10249000000002400D4810B50B4901600C49416035
:1024A00000214FF480428160C0E9031241618161E3
:1024B000C1610162FEF7D2FB002803D0BDE81040E5
:1024C000FEF7A8BA10BD000000540040FC01002037
:1024D000A086010010B586B000241648009401942F
:1024E0000294039404944FF080410594016042F2F9
:1024F000CF01C0E901143121C0E903148461FFF761
:10250000D9F908B1FEF786FA4FF480500090694679
:102510000848FFF759FA08B1FEF77CFA049404A9B9
:1025200004480594FFF77EF9002801D0FEF772FAFF
:1025300006B010BD500200200C4810B50A490160D9
:102540004FF4E1314160002181600C22C160C0E99B
:1025500004128161C161FFF7DCFB002803D0BDE8F4
:102560001040FEF757BA10BD00100140980200203D
:10257000FEE7FEE77047000010B500242DED088B44
:10258000F0EE619AB0EE40BA29EEA90AF0EE428A66
:10259000B0EE628AB0EE41AA08EEA80AF0EE60AA98
:1025A00008EE080A10EE100AFDF7E6FF41EC100BEA
:1025B00000F0E0FC51EC100BFDF7F1FF00EE100A0B
:1025C000244801F089FC2348B0EEC00A203001F015
:1025D000C0FC10EE100A204A20499FED219A90423B
:1025E00005DA01249FED1F0A81ED000A01E081ED6B
:1025F000009AF0EE482AB0EE682AF0EE691AB0EEC2
:102600004A1AF0EE6A0AB0EE4B0AFEF70DF91648C8
:1026100090ED000AD0ED010A90ED021A1348D0ECBB
:10262000041A01F007FDB7EE000A6CB91048114A10
:10263000D0ED000A30EE800A10EE101A80ED000A8C
:10264000914201D180ED009AB0EE490ABDEC088BB1
:1026500010BD0000E0020020CDCCCC3D6C0000207D
:10266000000000003333A340A00000205C000020E5
:102670007C000020000020417047FEF781BD000073
:1026800030B593B030216846FDF7D2FD14210CA877
:10269000FDF7CEFD1D480025016841F08051016025
:1026A000006800F0805011901948016841F48041A1
:1026B00001600068022400F4804011900120039022
:1026C00010200490009406940820CDE90750A8201B
:1026D000CDE9090404200B906846FEF7D7FE08B147
:1026E00072B6FEE70CA90F2081E831004FF4A0502C
:1026F0000F904FF48050109005210CA8FEF7DAFDE2
:10270000002801D072B6FEE713B030BD4038024059
:10271000007000400248016841F470010160704798
:1027200088ED00E00148FFF7BEB90000500200202C
:10273000F0B50268294C2A4D2A4E2B4F2B4B4FF0F7
:10274000804CA04209D0604507D0A84205D0B042D5
:1027500003D0B84201D0984204D122F0700E4A68EA
:1027600042EA0E02A0421BD0604519D0A84217D001
:10277000B04215D0B84213D0984211D01C4DA84297
:102780000ED01C4DA8420BD01B4DA84208D01B4DAB
:10279000A84205D01A4DA84202D01A4DA84203D132
:1027A00022F44075CA682A434D6922F080022A4308
:1027B00002608A68C2620A688262A04201D09842BE
:1027C00001D109690163012141610169C90703D090
:1027D000016921F001010161F0BD0000000001402C
:1027E0000004004000080040000C004000040140CC
:1027F00000400140004401400048014000180040F2
:10280000001C00400020004010B5846842EA03220A
:1028100024F47F440A432243826010BD826822F080
:1028200070020A4342F007018160704710B5036AE5
:10283000046A24F001040462846924F0F00444EA88
:10284000021423F00A020A438461026210BD10B52B
:10285000036A046A24F010040462846923F0A0036C
:1028600024F4704444EA023243EA011182610162B5
:1028700010BD01680C3151E8002F22F4907241E83C
:102880000023002BF5D10168143151E8002F22F00C
:10289000010241E80023002BF5D1016B012909D188
:1028A00001680C3151E8002F22F0100241E80023AA
:1028B000002BF5D1202180F84210002101637047E0
:1028C00070B5044600680169E26821F44051114383
:1028D00001612169A068E269084361691143084305
:1028E0002168CA6849F20C639A430243CA602068AF
:1028F0004169A26921F44071114341613149206865
:10290000884202D03049884202D1FEF77DFD01E0C5
:10291000FEF76AFDE2690023192164253226B2F52B
:10292000004F626828D0A0FB0101930F9200FDF7D1
:1029300047FC0146B0FBF5F06FF01802504301EB85
:10294000800006EB0010B0FBF5F000F0F002B1FBE8
:10295000F5F002EB0012B1FBF5F06FF018035843ED
:1029600001EB800006EB0010B0FBF5F000F00F006B
:1029700021681044886070BDA0FB010192185B4182
:10298000FDF71EFC0146B0FBF5F00201B1FBF5F0CE
:102990006FF01803584301EB800006EBC000B0FB5A
:1029A000F5F000F0F80002EB4002B1FBF5F05843FF
:1029B00001EB800006EBC000B0FBF5F000F0070073
:1029C000D6E7000000100140001401402DE9F84353
:1029D000984617460D460446089E24E0701C22D0F7
:1029E000FEF732F9A0EB0800B0421AD8CEB1206849
:1029F000C168490717D5802D15D0402D13D0016827
:102A0000C94309070FD4016800254068009020469B
:102A1000FFF72FFF0820606484F840500120BDE8D4
:102A2000F8830320FBE72068006835EA000004D043
:102A30000020B842D2D00020F1E70120F9E7FEE7FC
:102A40000FB4054B10B503A9044A029800F064FCCA
:102A500010BC5DF814FB0000913B000890000020C2
:102A60004100080218BF04200A0E18BF40F0010000
:102A70004FF07F4232EA010108BF40F00200012816
:102A800008BF052070470907090E002804DB00F184
:102A9000E02080F80014704700F00F0000F1E02003
:102AA00080F8141D7047000010B54FF00E402DED5A
:102AB000028BB0EE408A18EE104A00EB4400B0F1F1
:102AC000506F4AD84FF0FC40B0EB440F22D2B0EE2A
:102AD000C80AF7EE000A30EEC00AF6EE000A60EE11
:102AE000208A18EE900A01F010FB01EE100A14F093
:102AF000004F1DBFDFED2D0A9FED2D0AB1EE411AEB
:102B0000DFED2C0A08BF9FED2C0AF8EE001A21EE2B
:102B1000218A05E0DFED290A68EE088AB0EE600A36
:102B20009FED271ADFED271A30EE080A48EE811ACA
:102B30009FED251A08EEA11ADFED241A48EE811A3E
:102B40009FED231A08EEA11A68EE281ABDEC028B3D
:102B500001EE810A30EE200A10BD4FF0E440B0EBE8
:102B6000440F0CD918EE100AFFF77AFF042808BFAB
:102B700000F00AFBB0EE480ABDEC028B10BD4FF02E
:102B80007F40B0EB440F07D2B0EE480ABDEC028B99
:102B9000BDE8104000F0EABA012000F0B7FBBDEC40
:102BA000028BBDE8104000F0E7BA00000000C9BF8A
:102BB00022AAFDB90000C93F22AAFD390000000089
:102BC00024FE1C3DC78AD83C1E67383D1B93993DA7
:102BD000AFAA2A3E10EE100A10B510EE901A4FF070
:102BE000684202EB40032DED028BB3F1654F3CBF11
:102BF00002EB4102B2F1654F7CD200BFC0F3C75374
:102C0000C1F3C7529A1A1B2A09DD10F0004F14BFF6
:102C10009FED6E0A9FED6E0ABDEC028B10BD12F1A6
:102C20001A0F1BDA11F0004F09D010F0004F0CBF43
:102C30009FED680A9FED680ABDEC028B10BD80EE27
:102C4000208A18EE100AFFF70BFF042808BF00F0D7
:102C50009BFAB0EE480ABDEC028B10BD4200B2EB0D
:102C6000410F37D910F0004F19BFDFED5C1A9FED0F
:102C70005C1ADFED5C1A9FED5C1AB0EE602A0A4622
:102C8000F1EE400A80F00041B0EE420A10460A1A06
:102C90005200B2F1807F34D2484010F0004FDFED97
:102CA000532A9FED533A1DBFBEEE002A71EEE21A81
:102CB00031EE431AB6EE002A04BF71EEA21A31EECD
:102CC000031AF0EE402A42EE602A40EE020A82EE3B
:102CD000A02A18E011F0004F04BF9FED461AF0EE55
:102CE000411AD4D010F0004F1CBFDFED431A9FED06
:102CF000431A00E026E004BFDFED411A9FED411AC0
:102D0000C5E780EE202A22EE020ADFED3F0ADFED62
:102D10003F2ABDEC028B40EE202ADFED3D0A40EE5B
:102D2000220ADFED3C2A40EE202ADFED3B0A40EE8E
:102D3000220A22EE000A00EE201A31EE020A30EEDC
:102D4000210A10BD4FF07F42B2EB400F28BFB2EB1B
:102D5000410F05D2BDEC028BBDE8104000F009BA6E
:102D600040EA01035B0008BF41F0FF410BD0B2EB2A
:102D7000400F08BFB2EB410F08D120F0804000EEB9
:102D8000100A21F0804100EE901A37E7B2EB400FB5
:102D900012BF5FEA410240F0FF4001F000413FF402
:102DA0002DAF4A0092EA40033FF528AF002AACBF9E
:102DB0009FED1A1A9FED1A1A20EE010A60EE810AA1
:102DC00010EE100A10EE901A18E70000DB0FC9BFD2
:102DD000DB0FC93FDB0F4940DB0F49C00000C9BF13
:102DE00022AAFDB90000C93F22AAFD390060ED3ECC
:102DF000C30ACE3700000000000049C022AA7DBAF5
:102E00000000494022AA7D3A2DAD65BD8FB8D53D61
:102E10000FB511BE61C84C3EA8AAAABE0000804FE3
:102E20000000802F10EE101A08B5444A6846B2EB35
:102E3000410F28D94FF0E640B0EB410F94BF00207E
:102E40004FF0FF3000900098002861DB60EE000A30
:102E500010F0010F45D010F0020FDFED391A9FED91
:102E6000391A00EEE11ADFED381A40EE811A21EE30
:102E7000A01AF0EE400A40EE010A08BFF1EE600A27
:102E8000B0EE600A08BD314B21F0004293423CD9BC
:102E900011F0004FDFED2E0A20EE201ADFED2D0A93
:102EA00019BF31EE601A71EE200A31EE201A71EE70
:102EB000600ABDEEE01A11EE100A9FED271A00F02D
:102EC000030000EEC10A9FED251A009000EEC10A32
:102ED0009FED231A00EEC10A9FED221A00EEC10AEF
:102EE000B1E79FED211A9FED210A10F0020F00EECD
:102EF000810A9FED1F1A00EE801AB7EE000A00EE5D
:102F0000810A18BFB1EE400A08BD00F045F99AE702
:102F100010EE100A4000B0F17F4F3CBFB7EE000A40
:102F200008BD07D14FF0010000F0F0F9BDE80840FE
:102F300000F022B9BDE8084000F018B9B61F927E33
:102F4000336D4C39DA82083CA0AA2ABE490E4946A4
:102F500083F9223F0000004B0000C93F00A0FD396B
:102F60000020A2331A61342CB93AB2BACA9F2A3D62
:102F7000DDFFFFBE00B52DED048BB0EE409AF0EE04
:102F8000609A83B051EC190BFDF7EAFB41EC180B8A
:102F900018EE100A18EE901A8DED008B002818BF5D
:102FA0000120084320F00040C0F17F6000F1E040C4
:102FB000C00F14D019EE101A19EE900A8DED009B77
:102FC000002918BF0121084320F00040C0F17F60B4
:102FD00000F1E040C00F04BF012000F097F9B0EE0F
:102FE000480A03B0F0EE680ABDEC048B00BD000097
:102FF00000B510EE101A2DED028B81B04D4A6846D7
:10300000B2EB410F3CD94FF0E640B0EB410F94BF1B
:1030100000204FF0FF3000900098B0EE408A00286A
:103020005FDB28EE080ADFED440A9FED441A00EE4C
:10303000201ADFED430A40EE010A9FED421A00EE2E
:10304000201ADFED410A10F0010F40EE010A9FED5A
:103050003F1A00EE201A61EE000AB0EE480A08EEB0
:10306000200A02BF01B0BDEC028B00BDBFEE001A0A
:1030700001B0C1EE000ABDEC028BB0EE600A00BDEB
:10308000334B21F00042934228D911F0004FDFED7D
:10309000310A20EE201ADFED300A19BF31EE601A36
:1030A00071EE200A31EE201A71EE600ABDEEE01AD0
:1030B00011EE100A9FED291A00F0030000EEC10A7C
:1030C0009FED271A009000EEC10A9FED261A00EE30
:1030D000C10A9FED251A00EEC10A9DE700F05CF8D9
:1030E0009AE718EE100A4000B0F17F4F0DD218EEAB
:1030F000100AFFF7B5FC042808BF00F045F8B0EE51
:10310000480A01B0BDEC028B00BD09D1012000F0DE
:10311000FDF801B0BDEC028B5DF804EB00F02CB8BB
:1031200001B0B0EE480ABDEC028B5DF804EB00F094
:103130001DB80000B61F927EBBE9223C0C6D063B19
:103140008A76CE3CACB5593D35A1083E29AAAA3EA7
:10315000490E494683F9223F0000004B0000C93F59
:1031600000A0FD390020A2331A61342C30EE000A91
:10317000704730EE200A7047DFED020A80EEA00AA9
:1031800070470000000000009FED020A20EE000AD8
:1031900070470000000000102DE9F0014FF07F4261
:1031A000B2EB410F9FBF4FF0FF310160BDE8F0016E
:1031B00070474FF0004242EA0123C1F3C752783A08
:1031C000551112F01F0C434CCCF120067C44C1F386
:1031D000C752A2F178024FEA621204EB820254F85D
:1031E000254008BFD2E9015612D0556804FA0CF404
:1031F00025FA06F73C43976805FA0CF527FA06F816
:10320000D26807FA0CFCF24045EA08054CEA0206CF
:10321000A4FB034CA5FB0352A6FB03631D449D4284
:1032200034BF012600261319334416B1934202D944
:1032300003E0934201D2012200E00022624402F145
:10324000200C9206DC0C42EA443200EE102A5B03AA
:10325000DFED210AF8EEC01A00EE103A4FEA9C1C8E
:1032600011F0004FB8EE400AC0F800C020EE201A5E
:1032700000EE105ADFED190AB8EE400A20EE200ADF
:1032800071EE810A70EE800A10EE902A02F500625B
:103290006FF30B0200EE902A70EEE11A31EEC11AC4
:1032A000DFED101A30EE411A9FED0D0A20EE800A74
:1032B00001EE210A9FED0C1A00EE810A04BFBDE861
:1032C000F0017047CCF180510160BDE8F001B1EE32
:1032D000400A7047D80F0000000000360000802C24
:1032E00022AAFD29DB0FC92F0000C92F02E008C860
:1032F000121F08C1002AFAD170477047002001E070
:1033000001C1121F002AFBD170470000014908606B
:10331000704700009C0000202DE9FF4F8DB00F4644
:103320000546002606E025280BD0DDE90F12904760
:103330006D1C761C28780028F5D111B03046BDE808
:10334000F08F0024A246A1460122EC4900E004438C
:1033500015F8013F203B02FA03F00842F7D1287824
:103360002A2810D06FF02F022878A0F13001092907
:1033700014D80AEB8A0102EB410144F0020400EB8D
:10338000010A6D1CF0E701CF5FEA000A03D544F49F
:103390000054CAF1000A44F002046D1C28782E285B
:1033A00017D115F8010F44F004042A280ED06FF04D
:1033B0002F022878A0F1300109290AD809EB8901E8
:1033C00002EB410100EB01096D1CF2E757F8049B89
:1033D0006D1C28786C280FD006DC4C2817D0682884
:1033E0000DD06A2814D104E0742810D07A280FD1A7
:1033F0000DE044F400140AE044F4801401E044F4C5
:1034000040146978814202D104F580146D1C6D1C52
:103410002A786E2A1FD00CDC632A31D004DC002A03
:103420008BD0582A11D1A3E0642A68D0692A0CD124
:1034300065E0732A2ED004DC6F2A73D0702A04D181
:103440009BE0752A6FD0782A6ED01046DDE90F1206
:103450009047761C50E1C4F30250022806D003289E
:1034600009D0042801CF09D0066045E101CFF1174A
:10347000C0E9006140E101CF06803DE106703BE11B
:1034800017F8040B8DF8000000208DF80100EB46C2
:10349000012003E057F804BB4FF0FF3061074FF005
:1034A000000102D40DE008F10101884649450FDA18
:1034B0008045F8DB1BF808100029F4D108E008F17A
:1034C000010188468142FADB1BF808100029F6D179
:1034D000DDE90F23AAEB08008146214600F036F90A
:1034E000304400EB080604E0DDE90F121BF8010B85
:1034F0009047B8F10108F7D221464846F7E00A2183
:10350000C4F302534FF0000B0891022B04D001CFFB
:10351000C117032B09D00AE0FF1D27F00707F7E8C2
:10352000020108E032E01FE020E000B2C117042BE6
:1035300001D140B2C117031E71F1000307DA4FF049
:10354000000CD0EB0C006CEB01012D2302E02305F5
:1035500004D52B238DF82430012303E0E30701D0A9
:103560002023F7E7984658E00A2110E010210EE0EA
:1035700010204FF0000B08900CE010214FF0000BD2
:1035800044F004044FF00809089103E008214FF0CB
:10359000000B0891C4F30253022B04D001CF002189
:1035A000032B06D006E0FF1D27F00707F7E802010E
:1035B00003E080B2042B00D1C0B24FF00008230713
:1035C0002BD5702A07D0DDF820C08CF0100C5CEAF7
:1035D0000B0C05D00EE040238DF82430012308E0C9
:1035E00050EA010306D030238DF824308DF82520D1
:1035F00002239846DDF820C08CF0080C5CEA0B0C26
:103600000BD150EA010301D1630706D530238DF8B1
:1036100024304FF00108A9F10109582A04D038A23A
:103620000B9208AA0A920BE03AA2F9E75B46089AC5
:10363000FCF7C6FD0B9B9B5C0A9A521E0A92137004
:1036400050EA0102F2D10A98ADEB000000F1200B24
:10365000600702D524F4803401E04FF00109D94518
:1036600002DDA9EB0B0000E0002000EB0B01414460
:103670000890AAEB010AE00306D4DDE90F232146F6
:10368000504600F063F806444FF0000908E009A92D
:1036900011F80900DDE90F12904709F10109761CC4
:1036A000C145F4DBE0030CD5DDE90F23214650468C
:1036B00000F04CF8064404E0DDE90F12302090479A
:1036C000761C0899481E08900029F5DC08E00A9845
:1036D0000A990078491C0A91DDE90F129047761C7F
:1036E000BBF10001ABF1010BF1DC21465046DDE9F5
:1036F0000F2300F019F806446D1C1BE60928010091
:103700003031323334353637383961626364656657
:103710000000000030313233343536373839414219
:1037200043444546000000002DE9F04104460025D1
:103730001E461746880404D405E039462020B047C9
:103740006D1C641EF9D52846BDE8F0812DE9F041D5
:10375000044600251E469046C80301D5302700E0E8
:103760002027880404D505E041463846B0476D1C43
:10377000641EF9D52846BDE8F08110B5044600F076
:103780007AF8002804D12046BDE8104000F071B955
:1037900010BD7CB504460D46084600F085FBF0B927
:1037A000ECB12B4606226946122000F027FA0028C9
:1037B00014D19DF800109DF8012041EA02212180DA
:1037C0009DF802209DF8031042EA012161809DF8D6
:1037D00004109DF8052041EA0221A1807CBD4FF034
:1037E000FF307CBD38B5044600F05EFB002814D1E4
:1037F000234602226946402000F000FA00280CD13E
:103800009DF8001001F00F026272C1F302112172E3
:103810009DF8011001F00301E17138BD38B504468F
:1038200000F042FB00280AD12346012269467C2091
:1038300000F0E4F9002802D19DF80010A17138BD14
:103840002DE9F041074614460D461E46184600F085
:103850002BFB68B965B13CB1334622462946384650
:10386000BDE8F04100F0CAB96FF00600BDE8F08194
:103870004FF0FF30FAE738B5002504468DF80050C8
:1038800000F012FB002810D1207901280ED06571BC
:10389000234601226946002000F0B0F9002804D137
:1038A0009DF800101E290CD0C01E38BD012060718B
:1038B000024623466946002000F0A0F90028E7D020
:1038C00038BD217038BD2DE9F84F0546002004466B
:1038D000804607460090284600F0E6FA002817D1F7
:1038E0006E7A95F8089095F807A0701F082800D305
:1038F0000124B9F1020F01D94FF00108BAF1030F09
:1039000000D9012744EA08043C4303D06FF00700C4
:10391000BDE8F88F2B4602226946402000F06EF980
:103920000028F5D19DF800002B4666F3030069F3EB
:1039300006108DF800009DF8011002226AF30101C3
:103940008DF801106946402000F0BBFBE0E738B578
:10395000054600F0A9FA040025D1A97919B1032977
:1039600005D0441F1FE08DF80000042002E0032171
:103970008DF800108DF801002B46012269467C204D
:1039800000F09FFB04000ED1296A052088472B46D2
:1039900001227D200DF1010100F093FB040002D112
:1039A000296A05208847204638BD38B5054600F00D
:1039B0007BFA040017D1B6208DF800002B460122B7
:1039C00069467E2000F07DFB04000CD1296A0120AD
:1039D00088472879012806D12B4601226946002014
:1039E00000F00CF90446204638BD7CB504460D466F
:1039F000084600F065FAF0B9ECB12B46062269469C
:103A0000022000F02BF9002814D19DF800109DF839
:103A1000012041EA022121809DF802209DF8031037
:103A200042EA012161809DF804109DF8052041EAD9
:103A30000221A1807CBD4FF0FF307CBD2DE9F0411B
:103A4000074614460D461E46184600F039FA68B976
:103A500065B13CB13346224629463846BDE8F041BF
:103A600000F0FCB86FF00600BDE8F0814FF0FF30C9
:103A7000FAE738B5044600208DF80000204600F033
:103A80001FFA00280BD123460122694600F0E6F810
:103A9000002804D19DF800100F2901D0C01E38BDA8
:103AA000617038BD2DE9F843002780463C4600F0A0
:103AB00007FA00280ED198F80D6098F80B50404690
:103AC000072E00D90124042D00D901273C4303D03F
:103AD0006FF00700BDE8F883034601226946102015
:103AE00000F0BCF80028F5D19DF80000434666F3CD
:103AF00003008DF8000001226946102000F0F3FA5F
:103B00000028E7D14346012269460F2000F0A6F8BD
:103B10000028DFD19DF80000434665F302008DF8D0
:103B20000000012269460F2000F0DDFAD2E77FB5E0
:103B30000546012600F0C4F9040026D12B460122D7
:103B400002A9112000F08AF804001ED1A87A8DF88D
:103B50000000802804D19DF80810202900D10026FB
:103B6000202803D19DF8080080280CD05EB12B4698
:103B700001226946112000F0B6FA040005D1296A35
:103B80001E20884701E06FF0040404B0204670BD99
:103B900038B504468DF80000022301226946024828
:103BA000FEF720F9204638BD9802002010B5002805
:103BB00021D0114B0022001F196803E0814203D875
:103BC0000A4649680029F9D152B11368841A9C4207
:103BD00004D1006818441060104602E0506000E014
:103BE000186039B102680B1A934203D10B681A446A
:103BF00002604968416010BD940000202DE9F04743
:103C0000804658791646304487B21C468946384665
:103C100000F014F905462079012801D148F0800808
:103C2000D4F818C0A0783B462A464146E047010038
:103C300008D06FF001010C462846FFF7B7FF204679
:103C4000BDE8F087002006E062792B18D35C09F804
:103C50000030401C80B2B042F6D3ECE770B51C795E
:103C6000012C01D140F08000DC789D6913460A46A2
:103C700001462046A847002801D06FF0010070BD22
:103C800010EE100AF6EE000A074960EE200AA1EBDA
:103C9000600000EE100A20EE801AF7EE080A41EEEE
:103CA000400A20EE800A7047DF59375FFDF770FA4F
:103CB000FEF7E6FCFEF7B8FBFEF7ECFB9FED391BC9
:103CC0009FED3A0BFEF7FEFAFEF736FCFEF702FC1C
:103CD0003848FDF739FE3848FFF74FFD364C183CA1
:103CE000607018B135A0FEF7ABFEFEE7324B012243
:103CF000A3F118010020FFF7A3FD607070B92E4BEF
:103D00000122A3F118010020FFF798FE607033A094
:103D1000FEF796FE217838A0FEF792FE2648FFF7C0
:103D200044FE607018B13AA0FEF78AFEFEE7224812
:103D3000FFF774FD60702048FFF754FD1E4D607062
:103D400002202872092068720320E8710026AE71F3
:103D50002846FFF7FCFD60702846FFF7B4FD607051
:103D6000AE722846FFF7E3FE6070042068730121FD
:103D7000E97228732846FFF795FE60702B4C2C4D96
:103D80002C4E2D4FD4ED022A94ED012AD4ED001AC9
:103D900095ED001AD6ED000A97ED000AFEF7ECFB50
:103DA000F0E70000000000000000204000000000DC
:103DB000000049405002002018000020424D4930C8
:103DC000383820496E697469616C697A6174696F09
:103DD0006E204572726F720A0D0000004759524FF3
:103DE00020496E697469616C697A6174696F6E20CB
:103DF0004F4B0A0D000000004759524F204368699D
:103E0000702049443A203078253032580A0D00009D
:103E1000424D4930383820536F66742052657365BF
:103E200074204572726F720A0D000000A00000201D
:103E3000780000207400002070000020F0B50B30E6
:103E4000154D20F007010024144A0FE003688B424F
:103E50000BD38B4205D95E1A43184768C3E9006744
:103E600000E04368136002C004E0021D10680028EF
:103E7000ECD12046002802D1286808B10020F0BD0E
:103E8000064A07481060074A121A22F00702C0E9E2
:103E9000002401202860D7E798000020940000202B
:103EA000240300202005002038B1816929B1C169AF
:103EB00019B1006A08B1002070474FF0FF30704719
:103EC00038B1816929B1C16919B1006A08B100200E
:103ED00070474FF0FF30704710B504462DED068B4C
:103EE000B0EE408A90ED06AB90ED040B53EC1A2B2C
:103EF00051EC100BFCF74EFA94ED020B41EC190B50
:103F000053EC1A2B51EC100BFCF744FA41EC1A0B52
:103F100018EE100AFCF730FB94ED001B53EC112B4C
:103F2000FCF738FA53EC1A2BFCF78DF953EC192BEC
:103F3000FCF72AFAFCF733FB08EE900A18EE100A99
:103F4000FCF71AFBC4E90601B0EE680ABDEC068B6B
:103F500010BD10B504462DED068BB0EE408A90EDF5
:103F600006AB90ED040B53EC1A2B51EC100BFCF745
:103F700011FA94ED020B41EC190B53EC1A2B51EC96
:103F8000100BFCF707FA41EC1A0B18EE100AFCF7BD
:103F9000F3FA94ED001B53EC112BFCF7FBF953ECF7
:103FA0001A2BFCF750F953EC192BFCF7EDF9FCF741
:103FB000F6FA08EE100A18EE100AFCF7DDFAC4E96A
:103FC0000601B0EE480ABDEC068B10BDF1EE600AAA
:103FD000B1EE411AF1EE611A704720EE024AF0EE9E
:103FE000605A60EE224AB0EE416A05EEE24A20EEE7
:103FF000035A45EE824A05EEE35A06EE434A46EE80
:10400000234A06EE025A01EEE34A60EE233A41EEFD
:10401000C34A45EE833A01EEA25AB0EE440AF0EEEE
:10402000640A46EE623AB0EE451A41EE823AF0EE8C
:10403000631A7047F0EE614AB0EE624AF0EE431A3E
:1040400000B5B0EE603AF0EE413AB0EE441AF0EE50
:10405000420AF0EE402A2DED028B0020B0EE615AAC
:10406000F0EE415AB0EE604AB0EE640AFFF7AEFFE0
:10407000F0EE406AB0EE608AF0EE417AB0EE617A1E
:1040800002EE100AF0EE451AB0EE651AF0EE440AA0
:10409000B0EE640AFFF7A1FFF0EE473AB0EE673AE0
:1040A000F0EE482AB0EE662AFFF797FFB0EE412AFD
:1040B000B0EE600ABDEC028BB0EE611AF0EE420A7F
:1040C00000BD70B51C79012C01D100F07F009C78F7
:1040D000DD6913460A4601462046A847002801D05C
:1040E0006FF0010070BD70B51C79012C01D100F09A
:1040F0007F00DC78DD6913460A4601462046A84762
:10410000002801D06FF0010070BD10B500EE100A5C
:104110002DED028BB1EEC08A18EE100A20F000409F
:10412000C0F1FF40C00F0AD010EE100A20F000408E
:10413000C0F1FF40C00F04BF0120FFF7E7F818EE01
:10414000100ABDEC028B10BD3EB564248DE81C0046
:1041500040000A46014601230248FCF743FE0020C6
:104160003EBD0000FC0100203EB564248DE81C002B
:1041700040000A46014601230448FCF735FF034886
:10418000FCF768FD2428FAD000203EBDFC01002089
:1041900000000000000000000102030406070809F7
:1041A0000000000001020304000000006E83F9A279
:1041B0002915444ED15727FCC0DD34F5999562DBB3
:1041C0004190433CAB6351FEE841000800000020F1
:1041D000A0000000EC32000888420008A000002087
:1041E00080080000FC320008000000000000000011
:1041F00000000000000000000000000000000000BF
:10420000000019690000000000000000000000002C
:10421000000000000000000049410008694100085A
:10422000190A0008000020410AD7233C00000000C2
:10423000000000000000000000000000000000007E
:10424000000000000000803F0000000000000000AF
:10425000000000000000A04000000000000000007E
:10426000000000000000000001000000100000003D
:10427000000000000024F400000000000000000026
:08428000000000000000000036
:040000050800018965
:00000001FF
