:020000040800F2
:10000000500900209D010008AF2900084522000882
:10001000AD290008F50B0008BF2F00080000000004
:10002000000000000000000000000000C52B0008D8
:10003000F70B000800000000B1290008FD2B0008A4
:10004000B7010008B7010008B7010008B7010008B0
:10005000B7010008B7010008B7010008B7010008A0
:10006000B7010008B7010008B7010008B701000890
:10007000B7010008B7010008B7010008B701000880
:10008000B7010008B7010008B7010008B701000870
:10009000B7010008B7010008B7010008B701000860
:1000A000B7010008B7010008B7010008B701000850
:1000B000A52C0008B7010008B7010008B701000827
:1000C000B7010008B7010008B7010008B701000830
:1000D000B7010008B7010008B7010008B701000820
:1000E000B7010008B7010008B7010008B701000810
:1000F000B7010008B7010008B7010008B701000800
:10010000B7010008B7010008B7010008B7010008EF
:10011000B7010008B7010008B7010008B7010008DF
:10012000B7010008B7010008B7010008B7010008CF
:10013000B7010008B7010008B7010008B7010008BF
:10014000B7010008B7010008B7010008B7010008AF
:10015000B7010008B7010008B7010008B70100089F
:10016000B7010008B7010008B7010008B70100088F
:10017000B7010008B7010008B7010008000000003F
:10018000B7010008B7010008DFF80CD000F086FBCB
:100190000048004799510008500900200648804750
:1001A00006480047FEE7FEE7FEE7FEE7FEE7FEE75C
:1001B000FEE7FEE7FEE7FEE7952C00088901000850
:1001C0002DE9F05F0546002092469B46884606468C
:1001D000814640241BE0284641464746224600F01F
:1001E00026FA53465A46C01A914110D31146184672
:1001F000224600F00DFA2D1A67EB01084F46224601
:100200000120002100F004FA17EB00094E41201EE6
:10021000A4F10104DFDC484631462A464346BDE8E6
:10022000F09FD2B201E000F8012B491EFBD27047CB
:100230000022F6E710B513460A4604461946FFF7B2
:10024000F0FF204610BD2DE9FE4F804681EA0300F5
:10025000C00F0C46009021F0004123F00045B8EBA0
:100260000200A94105D24046214690461C460B4655
:10027000024623F00040104347D0270DC7F30A0081
:10028000C3F30A510290401A019040286BDAC3F37D
:10029000130040F4801B0098924620B10023D2EB5B
:1002A000030A63EB0B0B01985946C0F1400250461C
:1002B00000F0AEF906460D4650465946019A00F048
:1002C000C6F910EB08006141002487EA115284EA64
:1002D000E7731A4340D0009A62B3019A012A4FEAA9
:1002E000075215DC001B61EB02014FF0004202EAED
:1002F0000752CDE90042001C41F5801132462B46E1
:1003000000F0FDF903B0BDE8F08F40462146F9E763
:10031000001B61EB0201001C41F5801300185B41DA
:100320002018A2F5001747EB030140EAD570B61973
:100330006D4111E06D084FEA360645EAC0754FEA97
:100340000752001B61EB0201001C41F580114908B6
:100350004FEA30000019514132462B4603B0BDE848
:10036000F04F00F0BDB90098012240000023D0EB0F
:10037000020263EBE073009821464FEAE074B8EBA9
:10038000000061EB0401E9E783F000435BE781F0E3
:10039000004158E72DE9FE4F81EA030404F00044D0
:1003A00021F0004100944FF0000B23F0004350EA8D
:1003B00001045ED052EA03045BD0C3F30A54C1F3D4
:1003C0000A552C44A4F2F3340194A0FB0254C1F367
:1003D000130141F48011C3F3130343F4801301FBB1
:1003E000024400FB034E840A970A44EA815447EA18
:1003F0008357A4FB076802958D0A05FB07854FEA22
:10040000932C04FB0C542705029D4FEA065847EA3B
:100410001637B5EB08056EEB070C870E920E47EA10
:10042000811742EA8312A7FB0201B6EB0B0164EBD2
:1004300000042B0D43EA0C335E1844EB1C50DA46E3
:100440005146E7FB0201C5F313044FEA0B3343EABD
:1004500014534FEA0432019C43EA0603A4F10C044E
:100460000294009CCDE900B400F049F903B0BDE866
:10047000F08F00200146F9E72DE9F04D81EA0304F1
:1004800004F0004B21F0004514464FF0000A23F021
:10049000004150EA050220D054EA01021DD0C5F304
:1004A0000A570246C5F31303C1F31300C1F30A56FA
:1004B00040F4801543F48013A7EB0608101BD646C2
:1004C00008F2FD3873EB050002D308F1010801E0E2
:1004D00092185B41B8F1000F03DA00200146BDE835
:1004E000F08D00204FF48011064684460EE0171B65
:1004F00073EB050705D3121B63EB050306434CEAB8
:10050000010C49084FEA300092185B4150EA01079C
:10051000EDD152EA030012D082EA040083EA050119
:10052000084305D0101BAB4106D20122002306E090
:1005300000224FF0004302E06FF0010253101AEB6B
:1005400006004CEB085110EB0A0041EB0B01BDE833
:10055000F04D00F0C5B800F0004230F000400AD085
:10056000C10D01F56071C0F3160042EA0151C208E5
:1005700040071143704700200146704730B5041E04
:1005800071F1000404DB4FF00044404264EB0101D0
:10059000141E73F1000405DB1C464FF00043524269
:1005A00063EB04038B4208BF824230BD01F000437D
:1005B00030B421F0004150EA010206D00A0DA2F544
:1005C0006072C1F31301002A02DC30BC00207047C6
:1005D000440F44EAC104C100E01830BC00EBC25033
:1005E00000F047B830B50B46014600202022012418
:1005F00009E021FA02F59D4205D303FA02F5491BF1
:1006000004FA02F52844151EA2F10102F1DC30BD06
:10061000202A04DB203A00FA02F1002070479140C2
:10062000C2F1200320FA03F3194390407047202AB7
:1006300004DB203A21FA02F00021704721FA02F38C
:10064000D040C2F120029140084319467047202A49
:1006500006DBCB17203A41FA02F043EAE07306E0EA
:1006600041FA02F3D040C2F12002914008431946FA
:1006700070470029A8BF7047401C490008BF20F000
:100680000100704710B4B0FA80FC00FA0CF050EA98
:10069000010404BF10BC704749B1CCF1200421FA19
:1006A00004F411FA0CF118BF012121430843A3EB14
:1006B0000C01CB1D4FEA00614FEA102042BF002021
:1006C00010BC704700EBC35010440029A4BF10BCFD
:1006D0007047401C490008BF20F0010010BC704763
:1006E00010B5141E73F1000408DA401C41F100013A
:1006F00092185B411A4301D120F0010010BD2DE991
:10070000F04D92469B4611B1B1FA81F202E0B0FA87
:1007100080F220329046FFF77BFF04460F4640EA06
:100720000A0041EA0B0153465A46084313D01146CA
:1007300053EA010019D0C8F140025046FFF777FF95
:1007400005460E46504659464246FFF761FF0843AC
:1007500005D0012004E020463946BDE8F08D002098
:10076000054346EAE0762C4337430A986305E40ADA
:10077000A0EB08000022FD0A44EA47540A3002D5E3
:1007800000200146E9E7010510196941DDE9084546
:1007900000196941BDE8F04DA2E72DE9F04D0023B5
:1007A0001A461B1A8A4103DB00200146BDE8F08D82
:1007B000C1F30A52C1F3130141F480154FF0000B4D
:1007C000D10702D100186D41521E0027044640F2A5
:1007D000FF11384601EB620A3E4680460246002081
:1007E0004FF48011FFF723FFC2197141BB1846EB8C
:1007F0000100B4EB030C75EB000C04D3E41A65EBB9
:10080000000517460E46241908F101006D41804687
:100810003428E3DDF91946EB0600091BA84103D291
:100820004FF0FF32134601E0002213461BEB070096
:1008300046EB0A51BDE8F04DFFF752BFC1F30A5233
:10084000C1F3130140F2FF3341F480119A4202DAFE
:1008500000200146704740F233439A42A2F23342ED
:1008600002DC5242FFF7E3BEFFF7D2BE30B5041EF2
:1008700071F1000404DB4FF00044404264EB0101DD
:10088000141E73F1000405DB1C464FF00043524276
:1008900063EB0403994208BF904230BD064C074DFC
:1008A00006E0E06840F0010394E807009847103440
:1008B000AC42F6D3FFF76CFCD0570008F0570008A5
:1008C0000EB5C10F80EAE0700844CA07002140F26B
:1008D00033438DE80E000A460B46FFF710FF03B0C6
:1008E00000BD0EB540F2334102910021CDE9001167
:1008F0000A460B46FFF703FF03B000BD70B5C1F316
:100900000A5201F000450024C1F3130140F2FF3305
:1009100041F480119A4201DA002070BD40F2334365
:100920009A42A2F2334203DC5242FFF780FE00E01B
:1009300090402C43F1D0404270BD0000F0B5B0F9BA
:100940000010304D00EE101A2D4C6969B8EEC00A47
:1009500004EB8102DFED2C0A82ED000AB0F90220DF
:10096000B0EE601A00EE102A04F1340202EB8103AB
:10097000B8EEC00A83ED000AB0F9043000EE103A78
:1009800002F1340303EB8106B8EEC00A491C86ED80
:10099000000A0C2691FBF6F706FB17116961B0EE11
:1009A000600A002104EB8105D5ED001A02EB8105F8
:1009B00031EE811AD5ED001A03EB8105491C71EE69
:1009C000A00AD5ED001A0C2931EE800AEADBF2EE1E
:1009D000081A81EE212A80EEA11AC0EE210ABDEE8E
:1009E000C20A10EE101ABDEEC10A018010EE101AF4
:1009F0004180BDEEE00A10EE101A8180F0BD0000CB
:100A0000CC000020540000200000000070B52DED47
:100A1000068BF0EE61AAB0EE40AA2AEEAA0AF0EE2A
:100A2000429AB0EE628AF0EE418A09EEA90AB0EE6F
:100A3000609A08EE080A04F099FB6B4C2AEE801AC3
:100A400029EE804A94ED012AD4ED032A68EE000ACB
:100A500094ED000A22EE223AD4ED021AB0EE008A9A
:100A6000A4F1200500EE613A63EE084A20EE023A56
:100A700001EEA23A23EE085A20EE003A02EE423A84
:100A800001EEE13A02EEA23A64EE033A40EEC53AD4
:100A900060EEA40A41EE430A21EE051A95ED023AF2
:100AA00004EE641AD5ED014A03EEA43A85ED023A4C
:100AB00095ED035A00EEA45A85ED035A95ED044ACC
:100AC00001EE244A85ED044AD5ED004A04EEA3AABE
:100AD00044EE818A04EEA09A3AEE033A38EE841A84
:100AE00079EE050A22EE434A01EEE04A02EEC14ADF
:100AF000DFED3E3A04EE230A84ED000A20EE034ABD
:100B000001EE814A02EEE04A04EE232A20EE204A5A
:100B100084ED012A02EE414A20EE011A20EE000A7D
:100B200002EE201A02EE834A02EE020A44EE231A73
:100B3000C4ED021A01EEC31A01EEA10A41EE232A06
:100B4000C4ED032A02EEA20A04F010FBD4ED000A61
:100B500020EE801A84ED001AD4ED010A60EE800ABE
:100B6000C4ED010AD4ED021A60EE880A61EE801A23
:100B7000C4ED021A94ED032A22EE000A84ED030A62
:100B800020EE800A61EE080A00EEE10A02F064FA43
:100B9000DFED178A20EE280A85ED060A94ED011A8A
:100BA000B8EE000A21EE000A60EE010A94ED020A96
:100BB00060EE081A41EEC00AB7EE000A70EE800A35
:100BC00094ED030A21EE800AD4ED001A61EE881A32
:100BD00001EE810A02F0D6FA20EE280A85ED070A16
:100BE000BDEC068B70BD00007400002096430B3CEA
:100BF00033336542FEE7704772B6FEE770B50446D0
:100C000000F014F90546601C02D004480078044442
:100C100000F00CF9401BA042FAD370BDA0000020E8
:100C20002DE9F84FDFF8BCA10022012503264FF083
:100C30000F090AF1040BAAF1040E00BF0B6805FAB4
:100C400002F42340A34270D10F7907F00307012F6C
:100C500001D0022F16D187684FEA420806FA08FC35
:100C600027EA0C07D1F80CC00CFA08FC4CEA070C78
:100C7000C0F808C04768A7430C79C4F30014944037
:100C80003C4344600C79E443A4070AD0C4684FEAAB
:100C9000420C06FA0CF7BC438F6807FA0CF727439F
:100CA000C7600C7904F00304022C12D1D40800EBC5
:100CB000840CDCF820405707FF0E09FA07F824EAF5
:100CC0000804D1F8108008FA07F848EA0408CCF8BC
:100CD000208004684FEA420C06FA0CF7BC430F79F7
:100CE00007F0030707FA0CF7274307604C6814F472
:100CF000403F70D03C4C276847F480472760246809
:100D000022F0030704F480440094384C07EB040CF1
:100D1000DCF8084897074FEA177809FA08F7BC4348
:100D2000334FB84202D1002724E054E0314FB8429B
:100D300001D101271EE0304FB84201D1022719E04E
:100D40002E4FB84201D1032714E02D4FB84201D1F4
:100D500004270FE02B4FB84201D105270AE02A4FA4
:100D6000B84201D1062705E0284FB84201D1072734
:100D700000E0082707FA08F72743CCF80878DAF8E4
:100D800000405746D1F804C09C435FEACC2C00D504
:100D90001C433C60DBF800405F46D1F804C09C4334
:100DA0005FEA8C2C00D51C433C60DEF8004077469F
:100DB000D1F804C09C435FEA8C3C00D51C433C60E6
:100DC000084F083F3C68D1F804C09C435FEACC3C24
:100DD00000D51C433C60521C102AFFF42FAFBDE825
:100DE000F88F0000083C01404438024000300140C8
:100DF000000002400004024000080240000C0240D3
:100E0000001002400014024000180240001C024082
:100E1000426921EA02030A4043EA024181617047C4
:100E20000AB1816170470904FBE70000014880684E
:100E300070470000A000002090F83D0070470000BF
:100E400070B5040025D094F83D00002520B984F841
:100E50003C50204600F052FA242084F83D002068DF
:100E6000016821F0010101602068016841F400413E
:100E700001602068016821F40041016000F0A6FBD8
:100E80004D4A6168914201D84C4900E04C49884282
:100E900001D2012070BD4B492368B0FBF1F15E68BF
:100EA00026F03F060E435E606368934206D94FF416
:100EB000967359434FF47A73B1FBF3F12368491CDD
:100EC0001E6A26F03F06314319626168914210D8CC
:100ED0004900401EB0FBF1F2521CC2F30B02042A7F
:100EE00001D2042022E0B0FBF1F0401CC0F30B0063
:100EF0001CE0A268F2B301EBC10303EB0116431E31
:100F0000B3FBF6F35B1C43F480431B0549D092B35B
:100F100001EBC10202EB0111401EB0FBF1F0401CDD
:100F2000C0F30B0040F4804040F400402168CA69DF
:100F30004CF6FF739A431043C861D4E9071001438C
:100F40002068026822F0C00211430160D4E9030165
:100F500001432068826848F2FF339A43114381605D
:100F6000D4E9050108432168CA6822F0FF02104352
:100F7000C86001E00EE016E02068016841F0010160
:100F800001602564202084F83D00256384F83E50EC
:100F9000002070BD01EB4106431EB3FBF6F35B1C62
:100FA000B3E70120C2E701EB4101401EB0FBF1F0C5
:100FB000401CC0F30B00B7E7A086010080841E0030
:100FC00000093D0040420F002DE9FF4F83B09A46D3
:100FD000DDE9118793460446DDF84090FFF726FFD0
:100FE000054694F83D00202870D119230122744948
:100FF0002046009501F03CFA0028F5D194F83C0019
:10100000012863D0012084F83C0020680168C907EA
:1010100003D1016841F0010101602068016821F4F9
:1010200000610160222084F83D00402084F83E00E9
:1010300000262664C4F82490A4F82A80608D2085B8
:101040006048E062CDE9007553465A46204604994F
:1010500001F010F9002879D1208DD0B1012821D0DC
:101060000228206824D0416980690090208D0328DF
:1010700066D801282BD0544902283B464FF0000285
:10108000009557D08846204601F0F2F900285DD13E
:101090003AE02068416981690091016841F400717A
:1010A00001607DE02068016821F480610160F0E763
:1010B000016821F4806101602068016841F40061E9
:1010C0000160206841698069009069E075E02A4606
:1010D0003946204601F072FA88BB54E02068016866
:1010E00041F40071016020680069616A0870606AFB
:1010F000401C6062218D491E2185618D491E6185DC
:1011000021680969017042E02068016821F480616A
:10111000016020680069616A0870606A401C606252
:10112000208D401E2085608D401E60853B4600223C
:1011300041460095204601F09BF900B9CEE705E055
:101140002A463946204601F039FA18B1012007B085
:10115000BDE8F08F20680069616A0870606A401C11
:101160006062208D401E81B22185608D401E6085A9
:1011700020684269D243520712D4032903D101687F
:1011800021F48061016020680069616A0870606A0A
:10119000401C6062208D401E2085608D401E608551
:1011A000208D00287FF462AF202084F83D0084F871
:1011B0003E6084F83C600020C9E70220C7E70000D9
:1011C000020010000000FFFF040001002DE9FF4FA6
:1011D00083B09A46DDE9119793460446DDF84080D6
:1011E000FFF724FE054694F83D0020287FD11923FF
:1011F000012240492046009501F03AF9002876D1B5
:1012000094F83C00012872D0012084F83C0020684A
:101210000168C90703D1016841F00101016020683C
:10122000016821F400610160212084F83D00402024
:1012300084F83E0000262664C4F82480A4F82A908E
:10124000608D20852C48E062CDE9007553465A46F2
:101250002046049901F08CF870B930E02A463946EE
:10126000204601F0E3F958B1206C042804D120682D
:10127000016841F400710160012007B0BDE8F08F02
:10128000606A216800780861606A401C6062218D94
:10129000491E89B22185628D521E6285226853697A
:1012A000DB435B070BD469B100781061606A401CB6
:1012B0006062208D401E2085608D401E6085208DDF
:1012C0000028CBD12A463946204601F0A5F800284F
:1012D000CAD154F83D0B016841F40071016020202F
:1012E00004F81E09E67766770020C6E7FFE70220CC
:1012F000C3E70000020010000000FFFF10B586B039
:10130000044614216846FEF793FF1349206888427B
:1013100020D112480021026842F0020202600068F7
:1013200000F002000590C02000901220CDE90101DC
:10133000032003900420049069460948FFF770FCDD
:1013400006481030016841F400110160006800F4A3
:101350000010059006B010BD005400403038024027
:10136000000402400248816802781144816070479D
:10137000A00000200B4810B5016841F40071016025
:10138000016841F480610160016841F4807101608D
:10139000032000F06FF80F2000F006F800F024F8AA
:1013A000002010BD003C024070B50D4D04464FF4C6
:1013B0007A712878B1FBF0F00A490968B1FBF0F0C6
:1013C00000F00CFB48B9102C07D200222146501E19
:1013D00000F030F800206C6070BD012070BD00008E
:1013E000A0000020AC0000200A4808B5016841F4C4
:1013F00080410160006800F4804000900548001FB3
:10140000016841F080510160006800F08050009058
:1014100008BD000044380240002809DB00F01F022C
:10142000012191404009800000F1E020C0F8001146
:1014300070470000F0B40E4B1B680C46C3F3022348
:10144000C3F10705042D00D90425191D072901D270
:10145000002300E0DB1E012606FA05F1491E2140AB
:1014600099409E40761E16403143F0BC01F0E3BD2A
:101470000CED00E0064900F0070208684FF6FF0394
:10148000184040EA0220034A1043086070470000F9
:101490000CED00E00000FA052DE9F0470E460500CE
:1014A00065D0DFF81481D8F80000F7B200F007002B
:1014B000B04207D288F80070D8F8000000F00700AA
:1014C000B04254D128683D4C810712D5400703D55E
:1014D000206840F4E05020602878000703D5206899
:1014E00040F4604020602068A96820F0F0000843C4
:1014F00020602878C0072DD0304968680839012855
:1015000012D0022813D0032811D0096889070029B6
:101510002DDA216821F0030101432160FFF786FCE9
:10152000814641F2883A0EE009688903EFE70968CD
:101530008901ECE7FFF77AFCA0EB0901514502D9DC
:101540000320BDE8F0872068696800F00C00B0EB6C
:10155000810FEFD1D8F80010404601F00701B142E9
:1015600007D90770006800F00700B04201D00120E1
:10157000E7E72878400705D52068E96820F4E050BF
:10158000084320602878000706D52068296920F4E0
:10159000604040EAC100206000F038F82168084A45
:1015A000C1F30311515CC840064908600648006851
:1015B000FFF7FAFE0020C4E7003C02400838024072
:1015C0006C560008AC000020A40000200448054927
:1015D00000680968044AC1F38221515CC840704721
:1015E000AC000020083802407C5600080448054939
:1015F00000680968044AC1F34231515CC840704731
:10160000AC000020083802407C560008154810B590
:10161000006810F00C02144813D01449042A0FD0AB
:10162000082A0ED10F4C241F2268236802F03F02C3
:101630005B0207D52068C0F38810A0FB010106E01B
:10164000084610BD2168C1F38811A1FB00010023E9
:10165000FEF7B6FD2168C1F30141491C4900B0FB0A
:10166000F1F010BD083802400024F40040787D01FC
:101670002DE9F84F04006ED02078DFF84C93C007B6
:10168000A9F104054AD009F104000168C1F3810100
:10169000012908D00068C0F3810002280AD1D9F8D6
:1016A0000000400206D52868800337D5606800280E
:1016B000E1D033E06068B0F5803F10D0B0F5A02FE6
:1016C000286810D020F480302860286820F480201A
:1016D00028606068A8B1FFF7A9FB06460DE02868FE
:1016E00040F48030F4E740F480202860F7E700BF42
:1016F000FFF79CFB801B642873D828688003F7D50C
:101700000CE0FFF793FB064605E000BFFFF78EFBFA
:10171000801B6428F0D828688003F7D42078DFF88D
:10172000AC8280074FF0000A3ED5A748001D016833
:1017300011F00C0F08D00068C0F3810002280BD113
:10174000D9F80000400207D42868800716D5E06861
:10175000012800D112E033E1E068B8B10120C8F8F7
:101760000000FFF763FB064605E000BFFFF75EFBE6
:10177000801B0228C0D828688007F7D5286821690F
:1017800020F0F80040EAC10028600DE0C8F800A091
:10179000FFF74CFB064604E0FFF748FB801B0228DE
:1017A0001FD828688007F7D42078000722D5864FF5
:1017B00087486169703771B101210160FFF736FB1D
:1017C000064604E0FFF732FB801B022809D8386880
:1017D0008007F7D50EE0C0F800A0FFF727FB06460C
:1017E00005E082E0FFF722FB801B02287DD83868E5
:1017F0008007F7D42078400768D5DFF8CCB1002700
:101800000BF13C0BDBF80000C0000BD4DBF8001040
:1018100041F08051CBF80010DBF80000012700F008
:10182000805000906B4E3068C00510D4306840F492
:1018300080703060FFF7FAFA009005E0FFF7F6FAE3
:101840000099401A022850D83068C005F6D55E4E7F
:10185000A0686C3601280FD00528306810D020F021
:1018600001003060306820F004003060A068B8B13A
:10187000FFF7DCFA00900FE0306840F00100F4E779
:1018800040F004003060F7E7FFF7D0FA0099411A02
:1018900041F28830814266D830688007F4D50EE086
:1018A000FFF7C4FA009007E0FFF7C0FA0099411A69
:1018B00041F28830814256D830688007F4D42FB185
:1018C000DBF8001021F08051CBF80010A069C8B3FC
:1018D0003D49091D0968C1F3810102294AD0022846
:1018E000504607D0C8F8600000E03CE0FFF79EFAE1
:1018F00004463BE04746C8F86000FFF797FA064603
:1019000005E000BFFFF792FA801B02282BD8286859
:101910008001F7D4D4E907010843A16A2E4A490897
:1019200002EB0141626A41EA8211084394F82C10EB
:1019300040EA0161C9F8001001203866FFF776FA25
:10194000044606E03EE000BFFFF770FA001B0228E5
:1019500009D828688001F7D534E000BFFFF766FAA0
:10196000001B022802D90320BDE8F88F28688001F7
:10197000F4D427E00128F7D0D9F80000E26900F498
:10198000800191421CD1226A00F03F01914217D19F
:1019900047F6C071626A0140B1EB821F10D1A26AA2
:1019A0004FF0FF3300F4403103EB5202B1EB024F32
:1019B00006D194F82C1000F07060B0EB016F01D0EC
:1019C0000120D1E70020CFE7043802400000474261
:1019D000800E4742007000400000FFFF10B5401E1F
:1019E000B0F1807F01D3012010BD4FF0E024606191
:1019F0000F21601701F01FFB0020A061072020616C
:101A0000002010BD7047704770B590F83C20012A47
:101A100032D0012480F83C40022280F83D20036847
:101A20005A689D6822F070060A6832435A60134B68
:101A300002689A4214D0B2F1804F11D0104B9A42F2
:101A40000ED0104B9A420BD00F4B9A4208D00F4B3E
:101A50009A4205D00E4B9A4202D00E4B9A4204D1C4
:101A6000496825F080031943916080F83D400021CA
:101A700080F83C10084670BD022070BD0000014097
:101A80000004004000080040000C00400004014039
:101A9000004001400018004010B5040003D094F845
:101AA0003D0010B107E0012010BD002084F83C008B
:101AB000204600F01FF8022084F83D00211D206818
:101AC00001F0F6F8012084F8460084F83E0084F81E
:101AD0003F0084F8400084F8410084F8420084F814
:101AE000430084F8440084F8450084F83D00002059
:101AF00010BD000008B50068B0F1804F12D10A484F
:101B0000016841F0010101600068002200F001005D
:101B1000009011461C20FFF78DFCBDE808401C20FA
:101B2000FFF77ABC08BD00004038024090F83D1035
:101B3000012901D001207047022180F83D10016881
:101B4000CA6842F00102CA6000681149884214D094
:101B5000B0F1804F11D00F4988420ED00E49884213
:101B60000BD00E49884208D00D49884205D00D4956
:101B7000884202D00C49884204D1816801F00701F3
:101B8000062903D0016841F001010160002070477F
:101B9000000001400004004000080040000C00402C
:101BA00000040140004001400018004070B50446A8
:101BB00090F83C000025012817D0012684F83C60ED
:101BC000022084F83D002068826822F0770222F427
:101BD0007F4282600868502838D00DDC20284FD022
:101BE00005DC90B3102811D14AE0022070BD3028E6
:101BF00046D040280AD13BE060282FD070280DD075
:101C0000B0F5805F03D0B0F5005F12D0012584F8F5
:101C10003D60002084F83C00284670BDCB68D1E9C7
:101C20000121206801F0B0F82068816841F0770157
:101C300009E0CB68D1E90121206801F0A5F820680E
:101C4000816841F480418160E1E719E0CA68496830
:101C5000206801F0ABF85021206806E0CA684968A6
:101C6000206801F0B4F86021206801F097F8CEE711
:101C7000CA684968206801F099F840212068F4E7B3
:101C8000226801461046F0E770472DE9F04104460E
:101C90000068C66805694FF00007A90713D5B107AA
:101CA00011D5F91E01610120207720688069800725
:101CB000204602D0FFF7E8FF04E000F07EF820465F
:101CC00000F07CF82777680716D5700714D52168CF
:101CD0006FF004000861022020772068806910F40A
:101CE000407F204602D0FFF7CFFF04E000F065F808
:101CF000204600F063F82777280715D5300713D55D
:101D000021686FF008000861042020772068C0690E
:101D10008007204602D0FFF7B7FF04E000F04DF83F
:101D2000204600F04BF82777E80616D5F00614D5C4
:101D300021686FF010000861082020772068C069D2
:101D400010F4407F204602D0FFF79EFF04E000F031
:101D500034F8204600F032F82777E80708D0F0077B
:101D600006D021686FF001000861204600F028F8D5
:101D7000280608D5300606D521686FF08000086176
:101D80002046FFF73FFE680608D5700606D5216895
:101D90006FF040000861204600F09AF9A8060AD5C5
:101DA000B00608D521686FF0200008612046BDE824
:101DB000F041FFF728BEBDE8F08170477047000092
:101DC0002DE9F043A4492DED028B85B0884209D15D
:101DD000A24CA34D4FF00009E068B0F57A7F06DA17
:101DE000401CE06005B0BDEC028BBDE8F0839B4970
:101DF0003031A1F1180002F086FEA070974818302B
:101E0000FEF79CFD95481830B0F9001000EE101A4E
:101E1000F8EEC00A9FED930A934960EE800AC1ED87
:101E2000000AB0F9022000EE902AF8EEE00A60EE17
:101E3000800AC1ED010AB0F9040000EE900AF8EE44
:101E4000E00A20EE800A81ED020A84493031A1F1D6
:101E5000120002F084FFA07080481E30B0F900101C
:101E600000EE101AF8EEC00A9FED800A804960EE7D
:101E7000800AC1ED000AB0F9021000EE901A7D4907
:101E8000F8EEE00A60EE800AC1ED000AB0F9040045
:101E900000EE900A7848F8EEE00A20EE800A80ED25
:101EA000000A90ED000A10EE100AFEF754FB9FEDB9
:101EB000731B53EC112BFEF76DFA9FED721B53EC65
:101EC000112BFEF7D9FA41EC100B85ED000BFEF754
:101ED0006DFB00EE100A00F077FE10EE100AFEF720
:101EE0003AFB41EC100B85ED000BFEF75FFB00EEBB
:101EF000100A00F0C7FB10EE100AFEF72CFB41ECB5
:101F0000100B85ED000B01F00DFB9FED601B51ECFC
:101F1000100B53EC112BFEF731FB33D26669761CA4
:101F200066612069FEF717FB95ED008B53EC182BCB
:101F3000FEF789F9FEF73AFB00EE100A052E84ED54
:101F4000040A0FDDB1EE041AC0EE010A10EE900A89
:101F5000FEF701FB9FED4F0AC4F81490C4E90A0193
:101F600084ED040A9FED4C0B53EC102B94ED0A0BFF
:101F700051EC100BFEF70EFA53EC182BFEF707FA94
:101F8000C5E900019FED460B53EC102B95ED000BBE
:101F900051EC100BFEF7FEF9434D41EC180B28688D
:101FA000FEF7D9FA53EC182BFEF74DF9FEF7FEFABF
:101FB00000EE100A3D4910EE100ADFED3D0A85EDF6
:101FC000000A884206DD30EE600A85ED000A60787E
:101FD000401C0AE010EE100A3649884206D930EE5D
:101FE000200A85ED000A6078401E60706168A04696
:101FF000491C616014291FDB10EE100AFEF7ABFAD2
:1020000006462D480F460068FEF7A5FA04462B4801
:102010000D4690ED000AB1EE400A10EE100AFEF7F0
:102020009AFA8DE8F00041EC100B25A053EC102B30
:1020300000F0C6FFC8F80490D8F808004446401CD9
:10204000C8F8080032287FF4CDAE40211F48FEF7C3
:10205000DFFEC4F80890C5E6100200200000002052
:10206000900000203333EB3BC000002058A00B3A17
:1020700084000020880000208C0000200000000068
:1020800000806640182D4454FB210940333333331C
:102090003333E33F00000000B81E85EB51B8EA3F40
:1020A0007B14AE47E17A743F98000020000034436F
:1020B0000000B443000034C3700000206C00002016
:1020C00025662C25662C25660D0A000000000240BE
:1020D000704770B5040004D094F84100002510B199
:1020E00006E0012070BD84F84050204600F024F83E
:1020F000242084F841002068C16821F40051C160A7
:10210000204600F09DFE2068016921F490410161A4
:102110002068416921F02A0141612068C16841F4C9
:102120000051C1606564202084F8410084F84200B9
:102130006563002070BD000010B586B00446142110
:102140006846FEF775F814492068884221D1134883
:102150000021026842F010020260006800F01000E6
:1021600005900E481438026842F0010202600068CF
:1021700000F0010005904FF4C06000900220CDE90E
:102180000101032003900720049069460448FEF7EC
:1021900047FD06B010BD0000001001404438024069
:1021A000000002402DE9F843044690F841009846AB
:1021B00016460D46202802D00220BDE8F88385B1DE
:1021C0007EB100206064212084F84100FEF72EFEDD
:1021D000A6848146E684A0682027B0F5805F02D0FF
:1021E00003E00120E9E7206910B12E4600250EE04A
:1021F00000260CE08021204600F0A8FEA8B9C6B158
:1022000016F8010B21684860E08C401EE084E08CE9
:102210004B464FF00002CDF800800028EAD14FF085
:102220004001204600F092FE40B184F84170032046
:10223000C3E735F8020BC0F30800E3E784F8417008
:102240000020BAE7FEE701684A69D24352050FD47D
:102250006FF480624A61002140F8301F20224273EF
:102260008173026942F00402026101730120704728
:10227000002070472DE9F84F0446006889460B9D01
:1022800001689846174641F4806101602068016842
:1022900041F48071016000954FF0011B0022594606
:1022A00020460A9B00F0E4F84FF4007A40B1206821
:1022B0000068C00501D5C4F840A00320BDE8F88F30
:1022C000216809F0FE0008612B46284920460A9A39
:1022D00000F016F9F0BB20684169806900902A4639
:1022E00020460A9900F0A2F940B1206C04283AD1A6
:1022F0002068016841F40071016034E0FEB2B8F179
:10230000010F09D02168380A08612A4620460A9937
:1023100000F08CF90028E8D1206806612A462046A2
:102320000A9900F083F90028DFD12068016841F4A0
:102330008071016000950022594620460A9B00F0FA
:1023400097F80028B3D1216809F0FF0040F00100A0
:10235000086100E007E02B46044920460A9A00F095
:10236000CFF80028AAD00120A8E700000200010051
:102370002DE9F843044600680D46DDE90897016839
:102380009846164641F4807101604B4600224FF09A
:1023900001112046009700F06BF848B120680068F2
:1023A000C00502D54FF4007020640320BDE8F88317
:1023B000216805F0FE0008613B464A461549204663
:1023C00000F09EF888B920684169806900903A461B
:1023D0004946204600F02AF948B1206C042804D16F
:1023E0002068016841F4007101600120DEE7F5B268
:1023F000B8F1010F09D02168300A08613A46494610
:10240000204600F013F90028E7D12068056100207C
:10241000CCE700000200010070B516460D460446E8
:102420001EE02046FFF70FFF08B1012070BD681CB9
:1024300016D0FEF7FBFC801BA84200D885B92068A7
:102440004069C04340070BD5002044F8300F2021DD
:102450006173A073216941F0200121612073E4E7D9
:1024600020684069C0434007DBD4002070BD0000F5
:102470002DE9F047984617460D460446C1F3074636
:10248000DDF820902AE000BFB8F1FF3F26D0FEF72C
:10249000CDFCA0EB0901414502D8B8F1000F1DD1D8
:1024A0002068012E16D0806925EA00000004000C87
:1024B00012D00020B84211D1002044F8300F202162
:1024C0006173A073216941F0200121612073012013
:1024D000BDE8F0874069E7E70120EBE72068012EBF
:1024E0000AD0806925EA00000004000C06D0002014
:1024F000B842C9D00020EBE74069F3E70120F7E7D5
:102500002DE9F047984616460D4604464FF000095F
:102510004FF0200AC1F3074723E020684069C04319
:10252000400515D42068016841F4007101602168FC
:102530006FF480604861C4F8309084F83DA084F85E
:102540003E90216C41F00401216484F83C9021E02C
:10255000701C06D0FEF76AFCA0EB0800B04203D85E
:1025600016B1012F1FD021E02068012F15D08069FE
:1025700025EA00000004000C18D000BF44F8309F8A
:1025800084F80DA084F80E90216941F020012161AA
:1025900084F80C900120BDE8F087406925EA00002E
:1025A0000004000CEAD12068406901E020688069DD
:1025B00025EA00000004000CAFD1ECE72DE9F04162
:1025C000002590460E460446202728E04069C04377
:1025D000C0060CD454F8301B6FF01000486144F86A
:1025E00010596777A577206A2062257714E0FEF7F7
:1025F0001DFCA0EB0800B04200D886B920684069F5
:10260000C04340060BD544F8305F6773A57320695B
:1026100040F02000206125730120BDE8F081206892
:102620004169C9434906D1D40020F6E770B5164682
:102630000D4604461EE02046FFF705FE08B10120C6
:1026400070BD681C16D0FEF7F1FB801BA84200D8B5
:1026500085B920684069C04300060BD5002044F8C6
:10266000300F20216173A073216941F020012161A5
:102670002073E4E720684069C0430006DBD40020F3
:1026800070BD00001B48D0ED000AF5EEC00AF1EE67
:1026900010FA2ED990ED061AD0ED011AF0EE400A8C
:1026A00090ED022A41EE610AD0ED071A41EEC20A0E
:1026B00010EE901A21F00041C1F1FF41C90F06D17F
:1026C00010EE901A4FF07F42B2EB410F01D1F0EEC5
:1026D000400A90ED040A90ED032A21EE000A00EE74
:1026E000820A90ED052A80ED071AC0ED060A01EE78
:1026F000820A70479C01002070B551EC100B2DED43
:102700000C8BB0EE41CAF0EE61CA53EC1C2BFDF706
:10271000B3FE41EC100B53EC102B9FED4A0B51EC28
:10272000100BFDF7A9FEFDF741FF00EE100A00F0C7
:1027300083FF10EE100AFDF70EFF41EC180B53EC6F
:10274000182BFDF727FE0E4646EC190B05469FEDAC
:102750003FDAB0EE4D0A00F03DFE10EE100AFDF734
:10276000FAFE9FED3BAB53EC1A2BFDF713FE53EC37
:10277000182BFDF70FFE9FED38BB53EC1B2BFDF71D
:1027800062FD53EC192BFDF75EFD41EC190B51EC8A
:102790001C0BFDF70BFF00EE100A314CB5EEC00A22
:1027A00084ED000AF1EE10FA49DD46EC105B53ECC3
:1027B000192B51EC100BFDF75FFEFDF7F7FE00EE55
:1027C000100AF0EE000A84ED030A60EE200A53ECD2
:1027D0001B2BC4ED040A84ED050A46EC105B51EC9A
:1027E000100BFDF7D1FD53EC1A2BFDF7D3FD53EC85
:1027F000192BFDF741FEFDF7D9FE46EC1C5BB0EE50
:102800004D0A606000F0E6FD10EE100AFDF7A3FE31
:1028100053EC1A2BFDF7BEFD53EC182BFDF7BAFD58
:1028200053EC1B2BFDF7B3FD53EC1C2BFDF70BFDFD
:1028300053EC192BFDF720FEFDF7B8FEA060BDECB0
:102840000C8B70BD182D4454FB210940DB0F493F10
:102850000000000000000040000000000000F03F09
:102860009C01002030B587B014216846FDF7E0FCDC
:1028700015480024016841F080010160016801F001
:1028800080010591016841F001010160016801F0DA
:1028900001010591016841F00201016000680B4DE2
:1028A00000F002000590002240212846FEF7B8FA09
:1028B000402000900120CDE9010469462846039498
:1028C000FEF7AEF907B030BD3038024000000240DC
:1028D0000D4810B50B4901600C49416000214FF4CF
:1028E00080428160C0E9031241618161C16101627E
:1028F000FEF7A6FA002803D0BDE81040FEF77CB929
:1029000010BD000000540040BC010020A086010062
:1029100010B586B0002416480094019402940394E4
:1029200004944FF080410594016042F2CF01C0E968
:1029300001143121C0E903148461FFF7ADF808B137
:10294000FEF75AF94FF48050009069460848FFF7A7
:102950002DF908B1FEF750F9049404A90448059430
:10296000FFF752F8002801D0FEF746F906B010BD77
:10297000100200200C4810B50A4901604FF4E13103
:102980004160002181600C22C160C0E904128161B4
:10299000C161FFF79EFB002803D0BDE81040FEF7A1
:1029A0002BB910BD0010014058020020FEE7FEE7E1
:1029B0007047000070B5774C00252DED048BB0EE0C
:1029C000608AF0EE408A94ED000AD4ED000AB0EE81
:1029D000419A60EE201A94ED010AD4ED010A40EE0E
:1029E000201A94ED020AD4ED020A40EE201A11EEEC
:1029F000900AFDF7B0FD41EC100B00F09DFD51EC8D
:102A0000100BFDF7D3FD00EE100A6348B0EEC00ACC
:102A100002F004FDB0EEE80A10EE101A5F488142A1
:102A20000CDAB0EEC80A10EE101A814206DAB0EEE7
:102A3000C90A10EE101A814200DA01255848D4ED77
:102A4000022A94ED012A90ED001A5648D4ED001A9E
:102A5000D0ED000A544890ED000AFDF7D7FF534827
:102A600094ED000AD4ED010A94ED021AD0EC041A98
:102A700002F04DFD48497039DFED4D1A01F10C02AD
:102A800031EE612A9FED4B1A81ED022A81EC020A98
:102A900025B10020C8600861486153E0C0EE011A0A
:102AA0003D48454C5838F7EE002A90ED000A71EE8B
:102AB000801A80EE810AC2ED001AD0ED010A70EE94
:102AC000200A82EE010AC2ED010A90ED022A1830B6
:102AD00030EE022A82ED022A94ED000A30EE220A3C
:102AE00010EE103A84ED000AB3F17E5F05DAC0ED16
:102AF000001AC0ED010A80ED022A10EE103A2F4DA7
:102B0000AB421FDB90ED000A234B71EEC01AB2EE10
:102B1000040A4C3BC1EE802AC3ED002AD0ED011A15
:102B200070EEE10AC0EE801AC3ED011AD0ED020A80
:102B300072EE600AC0EE801A9FED210AC3ED021A00
:102B400084ED000A92ED000A1348C0EE010A30300D
:102B50000C3190ED000A30EE800A80ED000A92ED13
:102B6000010AC0EE010A90ED010A30EE800A80ED04
:102B7000010A92ED020AC0EE010A90ED020A30EE5F
:102B8000800A80ED020A0DC981E80D00BDEC048BBE
:102B900070BD0000C0000020100300200AD7A33C35
:102BA0008C00002088000020840000207400002099
:102BB000C3F51C41000048439C0000200000204158
:102BC00000000000704700000B49DFED0A0A0020FA
:102BD00081ED0C0A01EB8002401C92ED010A0C28E9
:102BE00082ED000A70EE200AF4DBB2EE081A80EEE5
:102BF000810A70470000000068010020FEF7B2BBA8
:102C000030B593B030216846FDF712FB14210CA8B3
:102C1000FDF70EFB1D480025016841F08051016061
:102C2000006800F0805011901948016841F480411B
:102C300001600068022400F480401190012003909C
:102C400010200490009406940820CDE90750A82095
:102C5000CDE9090404200B906846FEF709FD08B190
:102C600072B6FEE70CA90F2081E831004FF4A050A6
:102C70000F904FF48050109005210CA8FEF70CFC2B
:102C8000002801D072B6FEE713B030BD40380240D4
:102C9000007000400248016841F470010160704713
:102CA00088ED00E00148FEF7F0BF000010020020B0
:102CB000F0B50268294C2A4D2A4E2B4F2B4B4FF072
:102CC000804CA04209D0604507D0A84205D0B04250
:102CD00003D0B84201D0984204D122F0700E4A6865
:102CE00042EA0E02A0421BD0604519D0A84217D07C
:102CF000B04215D0B84213D0984211D01C4DA84212
:102D00000ED01C4DA8420BD01B4DA84208D01B4D25
:102D1000A84205D01A4DA84202D01A4DA84203D1AC
:102D200022F44075CA682A434D6922F080022A4382
:102D300002608A68C2620A688262A04201D0984238
:102D400001D109690163012141610169C90703D00A
:102D5000016921F001010161F0BD000000000140A6
:102D60000004004000080040000C00400004014046
:102D7000004001400044014000480140001800406C
:102D8000001C00400020004010B5846842EA032285
:102D900024F47F440A432243826010BD826822F0FB
:102DA00070020A4342F007018160704710B5036A60
:102DB000046A24F001040462846924F0F00444EA03
:102DC000021423F00A020A438461026210BD10B5A6
:102DD000036A046A24F010040462846923F0A003E7
:102DE00024F4704444EA023243EA01118261016230
:102DF00010BD01680C3151E8002F22F4907241E8B7
:102E00000023002BF5D10168143151E8002F22F086
:102E1000010241E80023002BF5D1016B012909D102
:102E200001680C3151E8002F22F0100241E8002324
:102E3000002BF5D1202180F842100021016370475A
:102E400070B5044600680169E26821F440511143FD
:102E500001612169A068E26908436169114308437F
:102E60002168CA6849F20C639A430243CA60206829
:102E70004169A26921F440711143416131492068DF
:102E8000884202D03049884202D1FEF7AFFB01E010
:102E9000FEF79CFBE2690023192164253226B2F576
:102EA000004F626828D0A0FB0101930F9200FDF74C
:102EB00087F90146B0FBF5F06FF01802504301EBC3
:102EC000800006EB0010B0FBF5F000F0F002B1FB63
:102ED000F5F002EB0012B1FBF5F06FF01803584368
:102EE00001EB800006EB0010B0FBF5F000F00F00E6
:102EF00021681044886070BDA0FB010192185B41FD
:102F0000FDF75EF90146B0FBF5F00201B1FBF5F00B
:102F10006FF01803584301EB800006EBC000B0FBD4
:102F2000F5F000F0F80002EB4002B1FBF5F0584379
:102F300001EB800006EBC000B0FBF5F000F00700ED
:102F4000D6E7000000100140001401402DE9F843CD
:102F5000984617460D460446089E24E0701C22D071
:102F6000FDF764FFA0EB0800B0421AD8CEB120688C
:102F7000C168490717D5802D15D0402D13D00168A1
:102F8000C94309070FD40168002540680090204616
:102F9000FFF72FFF0820606484F840500120BDE84F
:102FA000F8830320FBE72068006835EA000004D0BE
:102FB0000020B842D2D00020F1E70120F9E7FEE777
:102FC0000FB4054B10B503A9044A029801F0F8F9B3
:102FD00010BC5DF814FB00001D4F0008B00000207D
:102FE00003B401984100009850EAC12018BF0420A2
:102FF0004A0D18BF40F0010040F2FF72B2EB515F82
:1030000008BF40F00200012808BF052002B0704749
:103010004100080218BF04200A0E18BF40F001004A
:103020004FF07F4232EA010108BF40F00200012860
:1030300008BF052070470907090E002804DB00F1CE
:10304000E02080F80014704700F00F0000F1E0204D
:1030500080F8141D7047000010B54FF00E402DEDA4
:10306000028BB0EE408A18EE104A00EB4400B0F13B
:10307000506F4AD84FF0FC40B0EB440F22D2B0EE74
:10308000C80AF7EE000A30EEC00AF6EE000A60EE5B
:10309000208A18EE900A02F0A5FA01EE100A14F048
:1030A000004F1DBFDFED2D0A9FED2D0AB1EE411A35
:1030B000DFED2C0A08BF9FED2C0AF8EE001A21EE76
:1030C000218A05E0DFED290A68EE088AB0EE600A81
:1030D0009FED271ADFED271A30EE080A48EE811A15
:1030E0009FED251A08EEA11ADFED241A48EE811A89
:1030F0009FED231A08EEA11A68EE281ABDEC028B88
:1031000001EE810A30EE200A10BD4FF0E440B0EB32
:10311000440F0CD918EE100AFFF77AFF042808BFF5
:1031200000F0C4FFB0EE480ABDEC028B10BD4FF0BA
:103130007F40B0EB440F07D2B0EE480ABDEC028BE3
:10314000BDE8104000F0A4BF012001F071F8BDEC13
:10315000028BBDE8104000F0A1BF00000000C9BF15
:1031600022AAFDB90000C93F22AAFD3900000000D3
:1031700024FE1C3DC78AD83C1E67383D1B93993DF1
:10318000AFAA2A3E10EE100A10B510EE901A4FF0BA
:10319000684202EB40032DED028BB3F1654F3CBF5B
:1031A00002EB4102B2F1654F7CD200BFC0F3C753BE
:1031B000C1F3C7529A1A1B2A09DD10F0004F14BF41
:1031C0009FED6E0A9FED6E0ABDEC028B10BD12F1F1
:1031D0001A0F1BDA11F0004F09D010F0004F0CBF8E
:1031E0009FED680A9FED680ABDEC028B10BD80EE72
:1031F000208A18EE100AFFF70BFF042808BF00F022
:1032000055FFB0EE480ABDEC028B10BD4200B2EB98
:10321000410F37D910F0004F19BFDFED5C1A9FED59
:103220005C1ADFED5C1A9FED5C1AB0EE602A0A466C
:10323000F1EE400A80F00041B0EE420A10460A1A50
:103240005200B2F1807F34D2484010F0004FDFEDE1
:10325000532A9FED533A1DBFBEEE002A71EEE21ACB
:1032600031EE431AB6EE002A04BF71EEA21A31EE17
:10327000031AF0EE402A42EE602A40EE020A82EE85
:10328000A02A18E011F0004F04BF9FED461AF0EE9F
:10329000411AD4D010F0004F1CBFDFED431A9FED50
:1032A000431A00E026E004BFDFED411A9FED411A0A
:1032B000C5E780EE202A22EE020ADFED3F0ADFEDAD
:1032C0003F2ABDEC028B40EE202ADFED3D0A40EEA6
:1032D000220ADFED3C2A40EE202ADFED3B0A40EED9
:1032E000220A22EE000A00EE201A31EE020A30EE27
:1032F000210A10BD4FF07F42B2EB400F28BFB2EB66
:10330000410F05D2BDEC028BBDE8104000F0C3BEFA
:1033100040EA01035B0008BF41F0FF410BD0B2EB74
:10332000400F08BFB2EB410F08D120F0804000EE03
:10333000100A21F0804100EE901A37E7B2EB400FFF
:1033400012BF5FEA410240F0FF4001F000413FF44C
:103350002DAF4A0092EA40033FF528AF002AACBFE8
:103360009FED1A1A9FED1A1A20EE010A60EE810AEB
:1033700010EE100A10EE901A18E70000DB0FC9BF1C
:10338000DB0FC93FDB0F4940DB0F49C00000C9BF5D
:1033900022AAFDB90000C93F22AAFD390060ED3E16
:1033A000C30ACE3700000000000049C022AA7DBA3F
:1033B0000000494022AA7D3A2DAD65BD8FB8D53DAC
:1033C0000FB511BE61C84C3EA8AAAABE0000804F2E
:1033D0000000802F10EE101A08B5444A6846B2EB80
:1033E000410F28D94FF0E640B0EB410F94BF0020C9
:1033F0004FF0FF3000900098002861DB60EE000A7B
:1034000010F0010F45D010F0020FDFED391A9FEDDB
:10341000391A00EEE11ADFED381A40EE811A21EE7A
:10342000A01AF0EE400A40EE010A08BFF1EE600A71
:10343000B0EE600A08BD314B21F0004293423CD906
:1034400011F0004FDFED2E0A20EE201ADFED2D0ADD
:1034500019BF31EE601A71EE200A31EE201A71EEBA
:10346000600ABDEEE01A11EE100A9FED271A00F077
:10347000030000EEC10A9FED251A009000EEC10A7C
:103480009FED231A00EEC10A9FED221A00EEC10A39
:10349000B1E79FED211A9FED210A10F0020F00EE17
:1034A000810A9FED1F1A00EE801AB7EE000A00EEA7
:1034B000810A18BFB1EE400A08BD00F0FFFD9AE78F
:1034C00010EE100A4000B0F17F4F3CBFB7EE000A8B
:1034D00008BD07D14FF0010000F0AAFEBDE808408A
:1034E00000F0DCBDBDE8084000F0D2BDB61F927E02
:1034F000336D4C39DA82083CA0AA2ABE490E4946EF
:1035000083F9223F0000004B0000C93F00A0FD39B5
:103510000020A2331A61342CB93AB2BACA9F2A3DAC
:10352000DDFFFFBE2DED020B019820F00040019061
:103530009DED000B02B0704700B52DED048BB0EE91
:10354000409AF0EE609A83B051EC190BFDF725F923
:1035500041EC180B18EE100A18EE901A8DED008B46
:10356000002818BF0120084320F00040C0F17F6010
:1035700000F1E040C00F14D019EE101A19EE900AB5
:103580008DED009B002918BF0121084320F0004069
:10359000C0F17F6000F1E040C00F04BF012000F0E7
:1035A00047FEB0EE480A03B0F0EE680ABDEC048BAB
:1035B00000BD00000000000010B51D499FED1A1B62
:1035C0002DED020B84B0059820F000408842DCBF4E
:1035D00001209DED040B21DD1649884209D1049894
:1035E00040B94FF0010000F023FE00F031FD06B0BD
:1035F00010BD05DB9DED040B00F01EFD06B010BDF7
:1036000068469DED040B00F0D7F800F001000121A1
:10361000A1EB40009DED021B9DED000B00F064FB53
:1036200006B010BD00000000000000000000000017
:10363000FB21E93F0000F07F00B510EE101A2DEDE0
:10364000028B81B04D4A6846B2EB410F3CD94FF036
:10365000E640B0EB410F94BF00204FF0FF300090E8
:103660000098B0EE408A00285FDB28EE080ADFED04
:10367000440A9FED441A00EE201ADFED430A40EEA3
:10368000010A9FED421A00EE201ADFED410A10F008
:10369000010F40EE010A9FED3F1A00EE201A61EE85
:1036A000000AB0EE480A08EE200A02BF01B0BDECE5
:1036B000028B00BDBFEE001A01B0C1EE000ABDECE6
:1036C000028BB0EE600A00BD334B21F00042934202
:1036D00028D911F0004FDFED310A20EE201ADFED7E
:1036E000300A19BF31EE601A71EE200A31EE201A4D
:1036F00071EE600ABDEEE01A11EE100A9FED291A74
:1037000000F0030000EEC10A9FED271A009000EEC2
:10371000C10A9FED261A00EEC10A9FED251A00EEA0
:10372000C10A9DE700F0CAFC9AE718EE100A4000B3
:10373000B0F17F4F0DD218EE100AFFF769FC042894
:1037400008BF00F0B3FCB0EE480A01B0BDEC028B3C
:1037500000BD09D1012000F06BFD01B0BDEC028B72
:103760005DF804EB00F09ABC01B0B0EE480ABDEC85
:10377000028B5DF804EB00F08BBC0000B61F927E5C
:10378000BBE9223C0C6D063B8A76CE3CACB5593D7C
:1037900035A1083E29AAAA3E490E494683F9223F8F
:1037A0000000004B0000C93F00A0FD390020A233FB
:1037B0001A61342C000000002DE9F14F04462DED74
:1037C000020B2DED088B8AB09FEDE70B80ED020B0D
:1037D000139EE74826F0004585420ADC9DED120B5A
:1037E000002084ED000B0AB0BDEC088B03B0BDE8EF
:1037F000F08FE0489FEDE0AB9FEDE1BBA84247DDD5
:10380000E14F9FEDE39B9FEDE48B9DED120B53EC9D
:103810001A2B51EC100B002E1CDDFCF7B5FD41EC12
:10382000100BBD4208D053EC1B2B51EC100BFCF7D6
:10383000ABFDC4E900010BE053EC192B51EC100B6C
:10384000FCF7A2FD53EC182BFCF79EFDC4E9000128
:103850000120C8E7FCF7F7FC41EC100BBD4208D093
:1038600053EC1B2B51EC100BFCF7EDFCC4E90001F1
:103870000BE053EC192B51EC100BFCF7E4FC53EC70
:10388000182BFCF7E0FCC4E900014FF0FF30AAE779
:10389000C348A84279DB9DED120B51EC100B01F0EF
:1038A00031FB41EC180B9FEDC00B53EC102BFCF7D8
:1038B00071FD9FEDBF1B53EC112BFCF7C4FCFDF712
:1038C0001DF80746FCF7FCFF41EC190B53EC1A2BD3
:1038D000FCF760FD53EC182BFCF759FD41EC180B7D
:1038E00053EC1B2B51EC190BFCF754FDDFF8C8A26D
:1038F00041EC100B4FEA15580125FA4453EC102BFC
:1039000051EC180BFCF740FD032DC4E900013DD03C
:10391000C1F30A5005EB4511A8EB000011398142B3
:1039200034DA0AEB051BB0EE48AA9BED000BF0EE73
:1039300068AA53EC102B51EC190BFCF72BFD41EC52
:103940001B0B51EC1A0B53EC1B2BFCF71DFD41EC30
:10395000180B51EC1A0B53EC182BFCF715FD53EC1C
:103960001B2BFCF711FD9BED020B41EC1A0B53ECEA
:10397000102B51EC190BFCF70DFD53EC1A2BFCF737
:1039800003FD41EC100B6D1CB8E70EE0002EA8BF44
:103990003846BFF628AF94ED000B51EC100B81F0C8
:1039A0000041C4E9000178421DE7C6F3130040F46A
:1039B000801EC6F30A50A0F2F530471100F01F0533
:1039C000C5F12000DDF848B008900020069007906F
:1039D0000520EC467949002D07EB0002794408BF29
:1039E00051F8221009D051F8223001EB8201AB408E
:1039F0004A68089922FA01F11943A1FB0E26A1FB9E
:103A00000B131A449A4234BF0123002303EB060828
:103A10000CEB8003D3E901A60E448E4234BF012192
:103A2000002192448A4411B1924502D903E09245A3
:103A300001D2012100E00021C3E901A641444CF874
:103A40002010011EA0F10100C4DC029800F100501A
:103A5000850F0298DDE903678000DDF81480FCF72C
:103A60002FFF41EC1A0B3046FCF73BFF9FED541B38
:103A700053EC112BFCF78EFC41EC1B0B3846FCF78A
:103A800030FF9FED511B53EC112BFCF783FC41ECF5
:103A9000180B4046FCF725FF9FED4D1B53EC112BF7
:103AA000FCF778FC41EC190B51EC180B53EC192B7B
:103AB000FCF7C9FB53EC1B2BFCF7C5FB53EC1A2B93
:103AC000FCF7C1FBCDE90801002008909DED080B33
:103AD00053EC1A2B51EC100BFCF756FC53EC1B2B40
:103AE000FCF752FC53EC182BFCF74EFC53EC192B53
:103AF000FCF74DFC9FED381B53EC112BFCF74AFCF7
:103B00009FED370B41EC180B53EC102B9DED080B80
:103B100051EC100BFCF73EFC53EC182BFCF793FB1D
:103B20009FED310B41EC180B53EC102B9DED080B66
:103B300051EC100BFCF72EFC53EC182BFCF783FB1D
:103B400041EC100B139810F0004F06D06D4251EC71
:103B5000100B81F0004141EC100B284684ED000B66
:103B600041E600000000000000000000000000002E
:103B7000FB21E93F7CD9024000004054FB21F93F82
:103B80003163621A61B4D03DFB21F93F00000000AF
:103B90000000601A61B4D03D7370032E8A19A33BF4
:103BA000FB2139410000000083C8C96D305FE43F4C
:103BB000000000000000E03F8A1D0000D81C00004B
:103BC000000000000000103E000000000000103C5B
:103BD000000000000000103A182D4454FB21F93D6C
:103BE0003326A611460B113C00000054FB21F93D81
:103BF00070B504462DED028B4D1E00EBC500B0EEF6
:103C0000408AF0EE608A90ED000B35F0060017D088
:103C100053EC182B51EC100BFCF7BCFB41EC100BD8
:103C20006D1E04EBC50090ED001B51EC100B53EC26
:103C3000112BFCF708FB41EC100B35F00600E7D127
:103C4000022D36D0042D1CD0062D1CBFBDEC028BDE
:103C500070BD53EC182B51EC100BFCF79BFB94ED53
:103C60000A1B53EC112BFCF7EEFA53EC182BFCF764
:103C700091FB94ED081B53EC112BFCF7E4FA41EC9B
:103C8000100B53EC182B51EC100BFCF783FB94ED4D
:103C9000061B53EC112BFCF7D6FA53EC182BFCF750
:103CA00079FB94ED040B53EC102BFCF7CCFA41ECB0
:103CB000100B53EC182B51EC100BFCF76BFB94ED35
:103CC000021B53EC112BFCF7BEFA53EC182BFCF73C
:103CD00061FB94ED001B53EC112BFCF7B4FABDEC27
:103CE000028B41EC100B70BDF1B506462DED040BB7
:103CF000BD482DED0C8B8AB0B0EE418AF0EE618AA2
:103D0000179D25F000449FEDBABB9FEDBBCB8442CD
:103D100008DA9DED160B51EC100BFCF7EFFD0028B7
:103D200000F0E980B64FA74231DC002D0DDA9DEDA1
:103D3000160B51EC100B81F00041CDE9160151EC4E
:103D4000180B81F0004141EC180B9FEDAF0B53ECC9
:103D5000102B9DED160B51EC100BFCF718FB53ECE0
:103D6000182B9FEDAB0BCDE9040151EC100BFCF7C8
:103D70000BFB41EC100B53EC102B9DED040B51ECA5
:103D8000100BFCF760FA9FEDA48BCDE916019DEDB9
:103D9000160B53EC102B51EC100BFCF7FBFACDE992
:103DA00004019DED040B53EC102B51EC100BFCF7B0
:103DB000F1FA41EC190B9A480621B0EE490AF0EEEF
:103DC000690A7844FFF714FF9648B0EE40DAF0EE47
:103DD00060DAB0EE490AF0EE690A06217844FFF78E
:103DE00007FF9DED041B51EC100B53EC112BFCF75E
:103DF000D1FA9DED040B41EC1A0B53EC102B9DED09
:103E0000160B51EC100BFCF7C5FA41EC190B53ECF7
:103E10001A2B51EC1D0BFCF716FA53EC192BFCF77F
:103E2000B9FA53EC182BFCF70EFA9DED041B53EC7A
:103E3000112BFCF7AFFA53EC182BFCF704FA41EC0A
:103E4000180B9FED790B51EC190B53EC102BFCF771
:103E5000A1FA53EC182BFCF7F6F941EC190B9DED88
:103E6000160B53EC192B51EC100BFCF7ECF941EC51
:103E7000180BA74269DC3046FCF722FD41EC1A0B17
:103E800051EC180B53EC1A2BFCF7DDF941EC1B0B32
:103E900053EC182B51EC180BFCF77CFA53EC1B2B52
:103EA000FCF7EAFA53EC192BFCF76EFA9DED161BA2
:103EB00053EC112BFCF76BFA9FED5D1B53EC112BB0
:103EC000FCF768FA53EC1A2BFCF761FA41EC180B7B
:103ED000022000EAA570C0F10100FCF7F1FC53ECF0
:103EE000182BFCF757FA00BF41EC100B0AB0BDECE1
:103EF0000C8B05B0F0BD711C1698214308430CD003
:103F00009DED160B012E1CBF53EC102B51EC1C0B1E
:103F100010D000BFFCF7B0FAE6E79DED160B51ECB0
:103F2000100B00F0EFFF41EC100B51EC1B0B53ECAE
:103F3000102BEFE751EC100BFFF752F8042808BFE5
:103F400000F096F89DED160BD0E7012E04BFB0EE01
:103F5000480AF0EE680AC9D08DED048B0024049461
:103F60009DED040B53EC102B9DED160B51EC100B3B
:103F7000FCF70DFA53EC192BFCF709FA41EC190B7D
:103F800053EC182B51EC1C0BFCF776FA41EC180B98
:103F90008DED008B00949DED040B53EC102B9DEDEB
:103FA000000B51EC100BFCF7F5F953EC1B2BFCF755
:103FB0004AF99DED000B41EC1A0B53EC192B51EC17
:103FC000100BFCF7E7F953EC1A2BFCF73CF953EC18
:103FD000182BFCF7DFF99DED001B53EC112BFCF7C0
:103FE00032F981E7000000000000303E00000000D0
:103FF000000000000000F03F000000000000F0BFE3
:104000002894E53F00000000182D4454FB21E93FAF
:10401000075C143326A6813C00000000000000006D
:10402000AA190000C0190000635555555555D53FD4
:10403000000000000000004010B553EC102B51ECC4
:10404000100BFCF700F941EC100B10BD0000000054
:104050009FED050B10B553EC102B51EC100BFCF73A
:104060000BFA41EC100B10BD000000000000000036
:104070009FED050B10B553EC102B51EC100BFCF71A
:1040800089F941EC100B10BD000000000000001089
:1040900030EE000A704730EE200A7047DFED020A6A
:1040A00080EEA00A70470000000000009FED020AA9
:1040B00020EE000A70470000000000102DE9F0011A
:1040C0004FF07F42B2EB410F9FBF4FF0FF310160D5
:1040D000BDE8F00170474FF0004242EA0123C1F30E
:1040E000C752783A551112F01F0C434CCCF1200600
:1040F0007C44C1F3C752A2F178024FEA621204EB8A
:10410000820254F8254008BFD2E9015612D0556802
:1041100004FA0CF425FA06F73C43976805FA0CF507
:1041200027FA06F8D26807FA0CFCF24045EA0805BF
:104130004CEA0206A4FB034CA5FB0352A6FB036357
:104140001D449D4234BF012600261319334416B185
:10415000934202D903E0934201D2012200E00022FF
:10416000624402F1200C9206DC0C42EA443200EE7A
:10417000102A5B03DFED210AF8EEC01A00EE103AB8
:104180004FEA9C1C11F0004FB8EE400AC0F800C086
:1041900020EE201A00EE105ADFED190AB8EE400AA0
:1041A00020EE200A71EE810A70EE800A10EE902A4D
:1041B00002F500626FF30B0200EE902A70EEE11A36
:1041C00031EEC11ADFED101A30EE411A9FED0D0AE3
:1041D00020EE800A01EE210A9FED0C1A00EE810A02
:1041E00004BFBDE8F0017047CCF180510160BDE82B
:1041F000F001B1EE400A70475C1600000000003686
:104200000000802C22AAFD29DB0FC92F0000C92F36
:1042100002E008C8121F08C1002AFAD1704770478F
:10422000002001E001C1121F002AFBD170470000ED
:104230000149086070470000BC0000202DE9FF5FC5
:1042400082B00021DDE90430020DDDF840B0034307
:1042500018D044F61050A2F2FF32424315141198C0
:1042600001281FD0A5EB0B00401C5FEA000A4FF0AD
:1042700000064E4FDFF83891B046504615D5CAF1CA
:10428000000413E0119801244AA3012801D16FEA28
:104290000B010298119AC0E90031C0E9024206B050
:1042A000BDE8F09FCBF10000DFE704460021404A63
:1042B000491842EB0450CDE9001012E0E00707D0A6
:1042C00032463B4640464946FCF764F880468946FC
:1042D00032463B4610461946FCF75CF806460F4648
:1042E0006410002CEAD1DDE90401DDE90023BAF114
:1042F000000F06DAFCF74EF842464B46FCF74AF848
:1043000005E0FCF7B9F842464B46FCF7B5F8044621
:104310000E460022284BFCF7A9FA03D84FF0FF30D5
:10432000014607E00022254B20463146FBF78BFF74
:10433000FCF784FA102409E0002C0ADB0A2200238F
:10434000FBF73EFF039B30321A55641E50EA010210
:10435000F2D1641C039AC4F111031444119A012A86
:1043600003D0012208430DD10AE0084304D0002005
:104370004FF0110B119072E7A3EB0B056D1E0DE0D2
:104380005B4504DD4FF0000205F1010504E003DAAE
:104390004FF00002A5F10105002AECD00298119916
:1043A000C0E90231C0E9004579E70000000014408F
:1043B0000000F03F300000000000F0430000E03F4C
:1043C0002DE9FF4F95B09B468946064600250FE232
:1043D000252877D100242746F84A0121059400E0DA
:1043E000044316F8013F203B01FA03F01042F7D1D5
:1043F00030782A2811D06FF02F033078A0F13002E6
:10440000092A16D8059A44F0020402EB820203EB53
:1044100042021044761C0590EFE759F8042B0592F0
:10442000002A03DA504244F40054059044F0020498
:10443000761C30782E2816D116F8010F44F00404AB
:104440002A280DD06FF02F023078A0F13003092B0D
:1044500009D807EB870302EB4303C718761CF3E781
:1044600059F8047B761C30786C280FD006DC4C2879
:1044700017D068280DD06A2814D104E0742810D011
:104480007A280FD10DE044F400140AE044F48014BB
:1044900001E044F440147278824202D104F58014A1
:1044A000761C761C307866280BD013DC582877D021
:1044B00009DC002875D04528F6D04628F4D04728D6
:1044C0001AD19DE118E0632835D0642879D0652899
:1044D00012D195E1702873D008DC6728F1D06928E3
:1044E0006FD06E280DD06F2806D1B5E073282CD080
:1044F000752875D0782874D05A46179990476D1C46
:1045000075E1C4F30250022809D003280DD0D9F870
:10451000001004280DD00D6009F1040967E1D9F8F5
:104520000010EA17C1E90052F6E7D9F800100D8033
:10453000F2E70D70F0E719F8041B8DF80010002069
:104540008DF80100EA46012003E059F804AB4FF072
:10455000FF3061074FF0000102D40DE008F10101C6
:104560008846B9420FDA8045F8DB1AF808100029AE
:10457000F4D108E008F1010188468142FADB1AF81B
:1045800008100029F6D105985B46A0EB08072146E4
:104590003846179A00F094FA284400EB080507E023
:1045A0004DE029E10DE01AF8010B5A4617999047A2
:1045B000B8F10108F7D25B4621463846179A13E155
:1045C00042E00A220092C4F302524FF0000A022A8B
:1045D00008D059F804CB032A4FEAEC710AD00DE059
:1045E00029E02AE009F1070121F00702F2E802C1FF
:1045F000914609E00FFA8CFC4FEAEC71042A03D1D2
:104600004FFA8CFC4FEAEC71002907DA0A460021C8
:10461000DCF1000C61EB02012D2202E0220504D541
:104620002B228DF80420012203E0E20701D0202292
:10463000F7E7904659E00A2102E010220DE0102130
:104640004FF0000A00910BE010224FF0000A44F0F6
:1046500004040827009203E008224FF0000A0092A9
:10466000C4F30252022A05D059F804CB0021032AD0
:1046700008D009E009F1070121F00702F2E802C1C0
:10468000914605E01FFA8CFC042A01D10CF0FF0CC6
:104690004FF00008220728D5702806D0009B83F031
:1046A000100353EA0A0305D00EE040228DF80420DF
:1046B000012208E05CEA010206D030228DF80420D5
:1046C0008DF8050002229046009B83F0080353EA10
:1046D0000A030AD15CEA010201D1620705D5302242
:1046E0008DF804204FF001087F1E582804D034A014
:1046F00003900EA802900DE036A0F9E753466046FD
:10470000009AFBF75DFD84460398825C0298401E88
:10471000029002705CEA0100F0D1029806A9081A22
:1047200000F1200A600702D524F4803400E001275C
:10473000574502DDA7EB0A0000E0002000EB0A016C
:10474000009005984144401A0590E00306D45B466A
:104750002146179A059800F0B3F90544002706E0B2
:1047600001A85A46C05D179990476D1C7F1C4745AC
:10477000F6DBE0030CD55B462146179A059800F05E
:104780009FF9054404E030205A46179990476D1C64
:104790000099481E00900029F5DC08E00298029973
:1047A0005A460078491C0291179990476D1CBAF13E
:1047B0000001AAF1010AF1DC65E10000092801000D
:1047C0003031323334353637383961626364656687
:1047D0000000000030313233343536373839414249
:1047E000434445460000000000F058F90544761C9B
:1047F000307800287FF4ECAD19B02846BDE8F08F82
:10480000620700D4062709F1070222F0070CFCE832
:104810000223E14603F000485FEA080C02D00FF2E1
:10482000702C0DE05FEA045C02D50FF2682C07E003
:104830005FEAC47C02D00FF2602C01E0AFF2700C92
:104840004FF0FF3823F00043CDF850C065280CD05E
:1048500006DC452809D046281DD047283DD13DE03B
:10486000662818D067287ED138E00021112F01DB9F
:10487000112000E0781CCDE9000106A90EA8FFF781
:10488000DDFCDDE90F010E9A03910021009207F192
:10489000010A04914DE04FF000400097CDE901106E
:1048A00006A90EA8FFF7CAFCDDE90F0203920E9BD2
:1048B00011990022DDF80CA00093049211B9791C23
:1048C00000EB010AB7EB0A0004D4C0F1FF3007F196
:1048D000010A0490AAEB0700019044E0012F00DADE
:1048E00001270021112F01DD112000E03846CDE91C
:1048F000000106A90EA8FFF7A1FCDDE90F010E9A41
:104900000391002104910092BA4621070CD4039927
:10491000514500DA8A46BAF1010F05DD009AAAF185
:104920000101515C302908D0B84202DA10F1040FBD
:1049300006DA0121CDE9011015E0AAF10101E9E74C
:10494000002805DC049901440491AAEB000102E06F
:10495000411C514500DD8A460499401A401C0190D3
:104960004FF000400290200704D40198504501DB2D
:10497000CDF8048000208DF84F0002980DF14F070C
:10498000B0F1004F25D02B200E9002984FF0020876
:1049900000280CDA404202902D200E9007E00A21F8
:1049A0000298FBF71FFE3031029007F8011DB8F1A5
:1049B0000001A8F10108F2DC02980028EFD1791E6D
:1049C0000E980870307800F0200040F0450007F89D
:1049D000020D12A8C01B00F107081498007800B15E
:1049E000012000EB0A01019801EBE07105984144B8
:1049F000401A401E0590E00306D45B462146179AF4
:104A0000059800F05DF805441498007818B15A46EE
:104A1000179990476D1CE00324D55B462146179AF1
:104A2000059800F04DF805441CE00498002807DBC9
:104A3000DDE90301884203DD0098405C179901E03D
:104A4000179930205A469047049805F10105401CFB
:104A500004900198401E019004D12E205A461799C7
:104A600090476D1CBAF10001AAF1010ADDDC05E0F6
:104A700017F8010B5A46179990476D1CB8F10001C1
:104A8000A8F10108F4DC5B462146179A0598ABE6CD
:104A90002D0000002B000000200000002DE9F04157
:104AA000044600251E461746880404D405E039460E
:104AB0002020B0476D1C641EF9D52846BDE8F08162
:104AC0002DE9F041044600251E469046C80301D555
:104AD000302700E02027880404D505E04146384609
:104AE000B0476D1C641EF9D52846BDE8F08110B5AD
:104AF000044600F07AF8002804D12046BDE81040B2
:104B000000F071B910BD7CB504460D46084600F0B2
:104B100043FCF0B9ECB12B4606226946122000F0A6
:104B200033FA002814D19DF800109DF8012041EAC5
:104B3000022121809DF802209DF8031042EA012104
:104B400061809DF804109DF8052041EA0221A180B2
:104B50007CBD4FF0FF307CBD38B5044600F01CFC36
:104B6000002814D1234602226946402000F00CFAA6
:104B700000280CD19DF8001001F00F026272C1F301
:104B8000021121729DF8011001F00301E17138BD9D
:104B900038B5044600F000FC00280AD12346012263
:104BA00069467C2000F0F0F9002802D19DF8001041
:104BB000A17138BD2DE9F041074614460D461E4649
:104BC000184600F0E9FB68B965B13CB133462246AE
:104BD00029463846BDE8F04100F0D6B96FF006002E
:104BE000BDE8F0814FF0FF30FAE738B50025044604
:104BF0008DF8005000F0D0FB002810D1207901285A
:104C00000ED06571234601226946002000F0BCF9F0
:104C1000002804D19DF800101E290CD0C01E38BDFC
:104C200001206071024623466946002000F0ACF97D
:104C30000028E7D038BD217038BD2DE9F84F054672
:104C400000200446804607460090284600F0A4FB5A
:104C5000002817D16E7A95F8089095F807A0701F74
:104C6000082800D30124B9F1020F01D94FF001083F
:104C7000BAF1030F00D9012744EA08043C4303D0EA
:104C80006FF00700BDE8F88F2B46022269464020EE
:104C900000F07AF90028F5D19DF800002B4666F364
:104CA000030069F306108DF800009DF80110022240
:104CB0006AF301018DF801106946402000F06EFC96
:104CC000E0E738B5054600F067FB040025D1A97977
:104CD00019B1032905D0441F1FE08DF800000420FE
:104CE00002E003218DF800108DF801002B4601220F
:104CF00069467C2000F052FC04000ED1296A052090
:104D000088472B4601227D200DF1010100F046FC71
:104D1000040002D1296A05208847204638BD38B5ED
:104D2000054600F039FB040017D1B6208DF80000CD
:104D30002B46012269467E2000F030FC04000CD195
:104D4000296A012088472879012806D12B460122AB
:104D50006946002000F018F90446204638BD7CB5AD
:104D600004460D46084600F023FBF0B9ECB12B4693
:104D700006226946022000F037F9002814D19DF878
:104D800000109DF8012041EA022121809DF80220B7
:104D90009DF8031042EA012161809DF804109DF8FE
:104DA000052041EA0221A1807CBD4FF0FF307CBD8F
:104DB0002DE9F041074614460D461E46184600F000
:104DC000F7FA68B965B13CB1334622462946384600
:104DD000BDE8F04100F008B96FF00600BDE8F081D1
:104DE0004FF0FF30FAE738B5044600208DF8000098
:104DF000204600F0DDFA00280BD123460122694647
:104E000000F0F2F8002804D19DF800100F2901D01D
:104E1000C01E38BD617038BD2DE9F84300278046BB
:104E20003C4600F0C5FA00280ED198F80D6098F8BD
:104E30000B504046072E00D90124042D00D901272C
:104E40003C4303D06FF00700BDE8F883034601221E
:104E50006946102000F0C8F80028F5D19DF8000040
:104E6000434666F303008DF80000012269461020D6
:104E700000F0A6FB0028E7D14346012269460F2037
:104E800000F0B2F80028DFD19DF80000434665F33A
:104E900002008DF80000012269460F2000F090FB0F
:104EA000D2E77FB50546012600F082FA040026D13C
:104EB0002B46012202A9112000F096F804001ED111
:104EC000A87A8DF80000802804D19DF808102029C8
:104ED00000D10026202803D19DF8080080280CD09E
:104EE0005EB12B4601226946112000F069FB0400E7
:104EF00005D1296A1E20884701E06FF0040404B040
:104F0000204670BD82B0CDE9000121F00040019043
:104F10009DED000B02B051EC100B704738B5044604
:104F20008DF800000223012269460248FDF73AF994
:104F3000204638BD5802002010B5002821D0114B62
:104F40000022001F196803E0814203D80A4649681D
:104F50000029F9D152B11368841A9C4204D1006827
:104F600018441060104602E0506000E0186039B14B
:104F700002680B1A934203D10B681A440260496815
:104F8000416010BDB40000202DE9F04780465879FB
:104F90001646304487B21C468946384600F0C6F9AA
:104FA00005462079012801D148F08008D4F818C0BE
:104FB000A0783B462A464146E047010008D06FF002
:104FC00001010C462846FFF7B7FF2046BDE8F087F1
:104FD000002006E062792B18D35C09F80030401CF1
:104FE00080B2B042F6D3ECE770B51C79012C01D148
:104FF00040F08000DC789D6913460A460146204651
:10500000A847002801D06FF0010070BD10B504461C
:105010002DED068BB0EE418AF0EE618A51EC100B5B
:105020009FED201B53EC112BFBF7B4F953EC182B1D
:10503000FBF722FA9FED1D1B53EC112BFBF7AAF98E
:1050400041EC100BFEF7B8FA9FED1A9BB0EE40AAA8
:10505000F0EE60AA53EC192B51EC1A0BFBF7F3F8A6
:1050600041EC100B51EC190B53EC102BFBF704FA2D
:1050700041EC180B53EC192B51EC1A0BFBF784F98C
:1050800053EC182BFBF786F9C4E9000184ED048B7F
:1050900051EC180B81F00041C4E90601BDEC068B10
:1050A00010BD0000182D4454FB21194000000000E1
:1050B0000000E03F000000000000F03F70B5044633
:1050C0002DED068BB0EE418AF0EE618A51EC100BAB
:1050D0009FED201B53EC112BFBF75CF953EC182BC5
:1050E000FBF7CAF941EC100BFEF766FA9FED1B9B2C
:1050F000B0EE408AF0EE608A53EC192B51EC180B9D
:10510000FBF7A1F80E4646EC100B054653EC102BAE
:1051100051EC180BFBF7B0F9C4E90401C4E906012E
:1051200084ED009B46EC1A5B53EC192B51EC180BE9
:10513000FBF72AF953EC1A2BFBF79EF99FED090BAD
:10514000C4E9020184ED080B84ED0A0BBDEC068B6B
:1051500070BD0000182D4454FB21094000000000E0
:105160000000F03F000000000000000010EE100AF8
:10517000F6EE000A074960EE200AA1EB600000EE9F
:10518000100A20EE801AF7EE080A41EE400A20EEDF
:10519000800A7047DF59375FFCF7ECF8FDF730FD08
:1051A000FDF760FBFDF794FB9FED3A1B9FED3B0B7A
:1051B000FDF7A2FA00F008F9FDF7DCFBFDF7A8FB0C
:1051C0003848FCF7B3FC3848FFF791FC364C303CCC
:1051D000A07018B135A0FDF7F3FEFEE7324B0122B7
:1051E000A3F130010020FFF7E5FCA07070B92E4B51
:1051F0000122A3F130010020FFF7DAFDA07033A0F7
:10520000FDF7DEFE217838A0FDF7DAFE2648FFF72D
:1052100086FDA07018B13AA0FDF7D2FEFEE7224845
:10522000FFF7B6FCA0702048FFF796FC1E4DA0705B
:1052300002202872092068720320E8710026AE71EE
:105240002846FFF73EFDA0702846FFF7F6FCA07049
:10525000AE722846FFF725FEA07004206873012176
:10526000E97228732846FFF7D7FDA0702B4C2C4D10
:105270002C4E2D4FD4ED022A94ED012AD4ED001AC4
:1052800095ED001AD6ED000A97ED000AFDF792FBA6
:10529000F0E70000000000000000204000000000D7
:1052A000000049401002002030000020424D4930EB
:1052B000383820496E697469616C697A6174696F04
:1052C0006E204572726F720A0D0000004759524FEE
:1052D00020496E697469616C697A6174696F6E20C6
:1052E0004F4B0A0D000000004759524F2043686998
:1052F000702049443A203078253032580A0D000099
:10530000424D4930383820536F66742052657365BA
:1053100074204572726F720A0D000000C0000020F8
:105320008C0000208800002084000020F0B50B30A5
:10533000154D20F007010024144A0FE003688B424A
:105340000BD38B4205D95E1A43184768C3E900673F
:1053500000E04368136002C004E0021D10680028EA
:10536000ECD12046002802D1286808B10020F0BD09
:10537000064A07481060074A121A22F00702C0E9DD
:10538000002401202860D7E7B8000020B4000020E6
:10539000540300205005002038B1816929B1C1694A
:1053A00019B1006A08B1002070474FF0FF30704714
:1053B00038B1816929B1C16919B1006A08B1002009
:1053C00070474FF0FF30704710B59FED0F0B10483E
:1053D0002DED028B9FED0A8BB0EE481AF0EE681AA5
:1053E000FFF714FEB0EE481AF0EE681ABDEC028B1F
:1053F0000748BDE810409FED070B3030FFF75EBE59
:105400000000000000006940000000E04D62503FD5
:10541000E0020020000000000000144010B5044627
:105420002DED068BB0EE408A90ED0A1B90ED020B3D
:1054300053EC112B51EC100BFAF7ACFF94ED081B59
:1054400094ED060B41EC190B53EC112B51EC100BA6
:10545000FAF7A0FF41EC1A0B18EE100AFBF77BF8E5
:1054600094ED041B53EC112BFAF794FF53EC1A2B19
:10547000FAF7E9FE53EC192BFAF786FFFBF796F8DB
:1054800008EE900A18EE100AFBF765F8C4E9080167
:1054900018EE900AFBF75FF8C4E90A01B0EE680A5B
:1054A000BDEC068B10BDF1EE600AB1EE411AF1EED3
:1054B000611A704720EE024AF0EE605A60EE224A0E
:1054C000B0EE416A05EEE24A20EE035A45EE824A0A
:1054D00005EEE35A06EE434A46EE234A06EE025A2A
:1054E00001EEE34A60EE233A41EEC34A45EE833AC9
:1054F00001EEA25AB0EE440AF0EE640A46EE623AB9
:10550000B0EE451A41EE823AF0EE631A7047F0EEC3
:10551000614AB0EE624AF0EE431A00B5B0EE603A6E
:10552000F0EE413AB0EE441AF0EE420AF0EE402AB4
:105530002DED028B0020B0EE615AF0EE415AB0EE34
:10554000604AB0EE640AFFF7AEFFF0EE406AB0EEDC
:10555000608AF0EE417AB0EE617A02EE100AF0EE67
:10556000451AB0EE651AF0EE440AB0EE640AFFF791
:10557000A1FFF0EE473AB0EE673AF0EE482AB0EEFF
:10558000662AFFF797FFB0EE412AB0EE600ABDEC45
:10559000028BB0EE611AF0EE420A00BD70B51C79C4
:1055A000012C01D100F07F009C78DD6913460A468A
:1055B00001462046A847002801D06FF0010070BDC9
:1055C00070B51C79012C01D100F07F00DC78DD6919
:1055D00013460A4601462046A847002801D06FF02E
:1055E000010070BD10B500EE100A2DED028BB1EE7A
:1055F000C08A18EE100A20F00040C0F1FF40C00F32
:105600000AD010EE100A20F00040C0F1FF40C00F99
:1056100004BF0120FEF70CFE18EE100ABDEC028B51
:1056200010BD00003EB564248DE81C0040000A4611
:10563000014601230248FBF7C7FC00203EBD0000E5
:10564000BC0100203EB564248DE81C0040000A46E1
:10565000014601230448FBF7B9FD0348FBF7ECFBC7
:105660002428FAD000203EBDBC010020000000002C
:105670000000000001020304060708090000000002
:10568000010203040000000000004054FB21F93F28
:105690003163621A61B4D03D0000601A61B4D03D3C
:1056A0007370032E8A19A33B0000002E8A19A33BB6
:1056B000C14920259A837B390000000000000000CA
:1056C0006E83F9A22915444ED15727FCC0DD34F56D
:1056D000999562DB4190433CAB6351FE61C5BBDEF3
:1056E0003A6E24B7E0D24D42EA2E49061C92D10907
:1056F0001CEB1DFE3EA729B1F53582E88444BB2E84
:1057000026709CE9417E5FB439D69139F4395383D0
:105710008B5F849C3B28F9BDFF97F81F0F9805DE2F
:105720008B112FEF1F6D0A5ACF7E366DB709CB272D
:10573000663F464F2DEA5F9EC7BA27757BF1E5EBC2
:10574000F739073DEA92528AB15FFB6B085D8D1F06
:10575000000000006E83F9A22915444ED15727FCA2
:10576000C0DD34F5999562DB4190433CAB6351FE5B
:105770007AFE10111111C13F37D60684F464963FAA
:10578000280356C9226D6D3F0165F2F2D844433FAC
:10579000A69237A0887E143F735360DBCB75F3BEAF
:1057A000FE41B31BBAA1AB3F93846EE9E326823F6F
:1057B0001583E0FEC8DB573F68108D1AF726303F8F
:1057C000E9A7F0320FB8123FD47ABF74702AFB3EBB
:1057D000F057000800000020C00000001042000840
:1057E000B0580008C00000209008000020420008C7
:1057F00000000000000000000000000000000000A9
:105800000000000000000000000000000000000098
:105810000000000000000000000000000000000088
:1058200000001969000000000000000000000000F6
:105830000000000000000000255600084556000842
:10584000FD0B00080000A0400AD7A33B00000000A9
:105850000000000000000000000000000000000048
:10586000000000000000803F000000000000000079
:105870000000000000000000000000000000000028
:105880000000000000000000000000000000000018
:105890000100000010000000000000000024F400DF
:1058A00000000000000000000000000000000000F8
:040000050800018965
:00000001FF
